{
  "contractName": "Aggregator",
  "abi": [
    {
      "inputs": [],
      "stateMutability": "nonpayable",
      "type": "constructor"
    },
    {
      "inputs": [],
      "name": "certificateAuthorityManagerContractAddress",
      "outputs": [
        {
          "internalType": "address",
          "name": "",
          "type": "address"
        }
      ],
      "stateMutability": "view",
      "type": "function"
    },
    {
      "inputs": [],
      "name": "companyContractAddress",
      "outputs": [
        {
          "internalType": "address",
          "name": "",
          "type": "address"
        }
      ],
      "stateMutability": "view",
      "type": "function"
    },
    {
      "inputs": [],
      "name": "masterAddress",
      "outputs": [
        {
          "internalType": "address",
          "name": "",
          "type": "address"
        }
      ],
      "stateMutability": "view",
      "type": "function"
    },
    {
      "inputs": [],
      "name": "materialContractAddress",
      "outputs": [
        {
          "internalType": "address",
          "name": "",
          "type": "address"
        }
      ],
      "stateMutability": "view",
      "type": "function"
    },
    {
      "inputs": [],
      "name": "owner",
      "outputs": [
        {
          "internalType": "address",
          "name": "",
          "type": "address"
        }
      ],
      "stateMutability": "view",
      "type": "function"
    },
    {
      "inputs": [
        {
          "internalType": "address",
          "name": "_masterAddress",
          "type": "address"
        },
        {
          "internalType": "address",
          "name": "_companyContractAddress",
          "type": "address"
        },
        {
          "internalType": "address",
          "name": "_materialContractAddress",
          "type": "address"
        },
        {
          "internalType": "address",
          "name": "_certificateAuthorityManagerContractAddress",
          "type": "address"
        }
      ],
      "name": "setContracts",
      "outputs": [],
      "stateMutability": "nonpayable",
      "type": "function"
    }
  ],
  "bytecode": "0x608060405234801561001057600080fd5b50600480546001600160a01b03191633179055610238806100326000396000f3fe608060405234801561001057600080fd5b50600436106100625760003560e01c80634d14688e1461006757806375211fd0146100965780638da5cb5b146100a9578063bf989b6e146100bc578063d365a08e146100d1578063d4991cdb146100e4575b600080fd5b60025461007a906001600160a01b031681565b6040516001600160a01b03909116815260200160405180910390f35b60005461007a906001600160a01b031681565b60045461007a906001600160a01b031681565b6100cf6100ca3660046101af565b6100f7565b005b60035461007a906001600160a01b031681565b60015461007a906001600160a01b031681565b6004546001600160a01b031633146101435760405162461bcd60e51b815260206004820152600b60248201526a4f6e6c79206f776e65722160a81b604482015260640160405180910390fd5b600380546001600160a01b039586166001600160a01b0319918216179091556000805494861694821694909417909355600180549285169284169290921790915560028054919093169116179055565b80356001600160a01b03811681146101aa57600080fd5b919050565b600080600080608085870312156101c4578384fd5b6101cd85610193565b93506101db60208601610193565b92506101e960408601610193565b91506101f760608601610193565b90509295919450925056fea264697066735822122056083cae39809fa67a53623794312d92a08f09e2264938243b6d9ab8e11b270964736f6c63430008020033",
  "immutableReferences": {},
  "source": "// SPDX-License-Identifier: MIT\npragma solidity >0.7.0 <0.9.0;\n\ncontract Aggregator {\n    address public companyContractAddress;\n    address public materialContractAddress;\n    address public certificateAuthorityManagerContractAddress;\n    address public masterAddress;\n    address public owner;\n\n    constructor() {\n        owner = msg.sender;\n    }\n\n    modifier onlyOwner {\n        require(msg.sender == owner, 'Only owner!');\n        _;\n    }\n\n    function setContracts(\n        address _masterAddress,\n        address _companyContractAddress,\n        address _materialContractAddress,\n        address _certificateAuthorityManagerContractAddress\n    ) public onlyOwner {\n        masterAddress = _masterAddress;\n        companyContractAddress = _companyContractAddress;\n        materialContractAddress = _materialContractAddress;\n        certificateAuthorityManagerContractAddress = _certificateAuthorityManagerContractAddress;\n    }\n}\n",
  "sourcePath": "/home/alex/Desktop/proofchain/truffle/contracts/Aggregator.sol",
  "compiler": {
    "name": "solc",
    "version": "0.8.2+commit.661d1103.Emscripten.clang"
  },
  "schemaVersion": "3.3.4",
  "updatedAt": "2021-03-09T12:23:37.646Z",
  "devdoc": {
    "kind": "dev",
    "methods": {},
    "version": 1
  },
  "userdoc": {
    "kind": "user",
    "methods": {},
    "version": 1
  }
}