{
  "contractName": "CertificateAuthorityManager",
  "abi": [
    {
      "inputs": [
        {
          "internalType": "address",
          "name": "_masterAddress",
          "type": "address"
        },
        {
          "internalType": "address",
          "name": "_factoryContractAddress",
          "type": "address"
        }
      ],
      "stateMutability": "nonpayable",
      "type": "constructor"
    },
    {
      "anonymous": false,
      "inputs": [
        {
          "indexed": true,
          "internalType": "address",
          "name": "owner",
          "type": "address"
        },
        {
          "indexed": true,
          "internalType": "uint256",
          "name": "code",
          "type": "uint256"
        }
      ],
      "name": "CertificateAuthorityCertificateCreated",
      "type": "event"
    },
    {
      "anonymous": false,
      "inputs": [
        {
          "indexed": true,
          "internalType": "address",
          "name": "owner",
          "type": "address"
        }
      ],
      "name": "CertificateAuthorityCreated",
      "type": "event"
    },
    {
      "inputs": [
        {
          "internalType": "uint256",
          "name": "",
          "type": "uint256"
        }
      ],
      "name": "authorityCertificates",
      "outputs": [
        {
          "internalType": "string",
          "name": "title",
          "type": "string"
        },
        {
          "internalType": "address",
          "name": "certificateAuthority",
          "type": "address"
        }
      ],
      "stateMutability": "view",
      "type": "function"
    },
    {
      "inputs": [
        {
          "internalType": "uint256",
          "name": "",
          "type": "uint256"
        }
      ],
      "name": "authorityCertificatesCodes",
      "outputs": [
        {
          "internalType": "uint256",
          "name": "",
          "type": "uint256"
        }
      ],
      "stateMutability": "view",
      "type": "function"
    },
    {
      "inputs": [
        {
          "internalType": "address",
          "name": "",
          "type": "address"
        }
      ],
      "name": "certificateAuthorities",
      "outputs": [
        {
          "internalType": "string",
          "name": "name",
          "type": "string"
        },
        {
          "internalType": "bool",
          "name": "disabled",
          "type": "bool"
        },
        {
          "internalType": "bool",
          "name": "isValue",
          "type": "bool"
        }
      ],
      "stateMutability": "view",
      "type": "function"
    },
    {
      "inputs": [],
      "name": "minimumStake",
      "outputs": [
        {
          "internalType": "uint256",
          "name": "",
          "type": "uint256"
        }
      ],
      "stateMutability": "view",
      "type": "function"
    },
    {
      "inputs": [
        {
          "internalType": "uint256",
          "name": "_stake",
          "type": "uint256"
        }
      ],
      "name": "setMinimumStake",
      "outputs": [],
      "stateMutability": "nonpayable",
      "type": "function"
    },
    {
      "inputs": [
        {
          "internalType": "string",
          "name": "_name",
          "type": "string"
        }
      ],
      "name": "createCertificateAuthority",
      "outputs": [],
      "stateMutability": "nonpayable",
      "type": "function"
    },
    {
      "inputs": [
        {
          "internalType": "string",
          "name": "_title",
          "type": "string"
        },
        {
          "internalType": "uint256",
          "name": "_code",
          "type": "uint256"
        }
      ],
      "name": "createCertificate",
      "outputs": [],
      "stateMutability": "nonpayable",
      "type": "function"
    }
  ],
  "bytecode": "0x6080604052670de0b6b3a764000060045534801561001c57600080fd5b5060405161082d38038061082d83398101604081905261003b9161005e565b5050610090565b80516001600160a01b038116811461005957600080fd5b919050565b60008060408385031215610070578182fd5b61007983610042565b915061008760208401610042565b90509250929050565b61078e8061009f6000396000f3fe608060405234801561001057600080fd5b506004361061007d5760003560e01c806398213dfd1161005b57806398213dfd146100de578063c5e3dad314610100578063c9e6a7c214610113578063ec5ffac2146101265761007d565b8063233e9903146100825780632ec919a61461009757806362d3b8e8146100bd575b600080fd5b610095610090366004610650565b600455565b005b6100aa6100a5366004610650565b61012f565b6040519081526020015b60405180910390f35b6100d06100cb366004610650565b610150565b6040516100b49291906106b3565b6100f16100ec3660046105a4565b6101fd565b6040516100b4939291906106dd565b61009561010e3660046105d2565b6102ad565b61009561012136600461060d565b610355565b6100aa60045481565b6001818154811061013f57600080fd5b600091825260209091200154905081565b60006020819052908152604090208054819061016b90610707565b80601f016020809104026020016040519081016040528092919081815260200182805461019790610707565b80156101e45780601f106101b9576101008083540402835291602001916101e4565b820191906000526020600020905b8154815290600101906020018083116101c757829003601f168201915b505050600190930154919250506001600160a01b031682565b60026020526000908152604090208054819061021890610707565b80601f016020809104026020016040519081016040528092919081815260200182805461024490610707565b80156102915780601f1061026657610100808354040283529160200191610291565b820191906000526020600020905b81548152906001019060200180831161027457829003601f168201915b5050506001909301549192505060ff8082169161010090041683565b60038054600181019091557fc2575a0e9e593c00f959f8c92f12db2869c3395a3b0502d05e2516446f71f85b0180546001600160a01b031916339081179091556000908152600260209081526040909120825161030c92840190610484565b5033600081815260026020526040808220600101805461ff001916610100179055517fe8c9b46f5348d749cb15476293b1686475f06347a6fba68b333b4aeb5c1305d39190a250565b6000818152602081905260409020600101546001600160a01b0316156103e75760405162461bcd60e51b815260206004820152603a60248201527f5468697320636572746966696361746520616c7265616479206578697374732e60448201527f20596f752063616e206e6f74206f766572726964652074686973000000000000606482015260840160405180910390fd5b600180548082019091557fb10e2d527612073b26eecdfd717e6a320cf44b4afac2b0732d9fcbe2b7fa0cf601819055600081815260208181526040909120835161043392850190610484565b5060008181526020819052604080822060010180546001600160a01b03191633908117909155905183927ff0fdccb7f2a9d4420770a9328560943258d5ee5af327bd1304208a82dec0bdf191a35050565b82805461049090610707565b90600052602060002090601f0160209004810192826104b257600085556104f8565b82601f106104cb57805160ff19168380011785556104f8565b828001600101855582156104f8579182015b828111156104f85782518255916020019190600101906104dd565b50610504929150610508565b5090565b5b808211156105045760008155600101610509565b600082601f83011261052d578081fd5b813567ffffffffffffffff8082111561054857610548610742565b604051601f8301601f19908116603f0116810190828211818310171561057057610570610742565b81604052838152866020858801011115610588578485fd5b8360208701602083013792830160200193909352509392505050565b6000602082840312156105b5578081fd5b81356001600160a01b03811681146105cb578182fd5b9392505050565b6000602082840312156105e3578081fd5b813567ffffffffffffffff8111156105f9578182fd5b6106058482850161051d565b949350505050565b6000806040838503121561061f578081fd5b823567ffffffffffffffff811115610635578182fd5b6106418582860161051d565b95602094909401359450505050565b600060208284031215610661578081fd5b5035919050565b60008151808452815b8181101561068d57602081850181015186830182015201610671565b8181111561069e5782602083870101525b50601f01601f19169290920160200192915050565b6000604082526106c66040830185610668565b905060018060a01b03831660208301529392505050565b6000606082526106f06060830186610668565b931515602083015250901515604090910152919050565b60028104600182168061071b57607f821691505b6020821081141561073c57634e487b7160e01b600052602260045260246000fd5b50919050565b634e487b7160e01b600052604160045260246000fdfea264697066735822122018e7d90e609d37df3b448b2a7b421dc1ee3d71ca5408cccc42e5994fde2b3da364736f6c63430008020033",
  "immutableReferences": {},
  "source": "// SPDX-License-Identifier: MIT\npragma solidity >0.7.0 <0.9.0;\n\nimport './utils/Ownable.sol';\n\n// import \"./utils/MaterialReferencer.sol\";\n\ncontract CertificateAuthorityManager {\n    event CertificateAuthorityCreated(address indexed owner);\n    event CertificateAuthorityCertificateCreated(address indexed owner, uint256 indexed code);\n    struct Certificate {\n        string title;\n        // unique certificate code, used to assign a specific certificate code to a material/company\n        address certificateAuthority;\n    }\n    struct CertificateAuthority {\n        string name;\n        bool disabled;\n        // true if this certificate authority is set\n        bool isValue;\n    }\n    // address => [code => certificate]\n    mapping(uint256 => Certificate) public authorityCertificates;\n    uint256[] public authorityCertificatesCodes;\n    mapping(address => CertificateAuthority) public certificateAuthorities;\n    address[] certificateAuthoritiesAddress;\n    // minimum stake the certificate authorities need to deposit\n    uint256 public minimumStake = 1 ether;\n\n    constructor(address _masterAddress, address _factoryContractAddress) {}\n\n    function setMinimumStake(uint256 _stake) public {\n        minimumStake = _stake;\n    }\n\n    function createCertificateAuthority(string memory _name) public {\n        certificateAuthoritiesAddress.push(msg.sender);\n        certificateAuthorities[msg.sender].name = _name;\n        certificateAuthorities[msg.sender].isValue = true;\n        emit CertificateAuthorityCreated(msg.sender);\n    }\n\n    function createCertificate(string memory _title, uint256 _code) public {\n        require(\n            authorityCertificates[_code].certificateAuthority == address(0),\n            'This certificate already exists. You can not override this'\n        );\n        authorityCertificatesCodes.push(_code);\n        authorityCertificates[_code].title = _title;\n        authorityCertificates[_code].certificateAuthority = msg.sender;\n        emit CertificateAuthorityCertificateCreated(msg.sender, _code);\n    }\n}\n",
  "sourcePath": "/home/alex/Desktop/proofchain/truffle/contracts/CertificateAuthorityManager.sol",
  "compiler": {
    "name": "solc",
    "version": "0.8.2+commit.661d1103.Emscripten.clang"
  },
  "schemaVersion": "3.3.4",
  "updatedAt": "2021-03-09T12:23:37.649Z",
  "devdoc": {
    "kind": "dev",
    "methods": {},
    "version": 1
  },
  "userdoc": {
    "kind": "user",
    "methods": {},
    "version": 1
  }
}