{
  "contractName": "Company",
  "abi": [
    {
      "inputs": [
        {
          "internalType": "address",
          "name": "_masterAddress",
          "type": "address"
        },
        {
          "internalType": "address",
          "name": "_factoryContractAddress",
          "type": "address"
        }
      ],
      "stateMutability": "nonpayable",
      "type": "constructor"
    },
    {
      "anonymous": false,
      "inputs": [
        {
          "indexed": true,
          "internalType": "address",
          "name": "owner",
          "type": "address"
        }
      ],
      "name": "CompanyCreate",
      "type": "event"
    },
    {
      "anonymous": false,
      "inputs": [
        {
          "indexed": true,
          "internalType": "address",
          "name": "previousOwner",
          "type": "address"
        },
        {
          "indexed": true,
          "internalType": "address",
          "name": "newOwner",
          "type": "address"
        }
      ],
      "name": "OwnershipTransferred",
      "type": "event"
    },
    {
      "anonymous": false,
      "inputs": [
        {
          "indexed": false,
          "internalType": "address",
          "name": "a",
          "type": "address"
        },
        {
          "indexed": false,
          "internalType": "address",
          "name": "b",
          "type": "address"
        }
      ],
      "name": "T",
      "type": "event"
    },
    {
      "anonymous": false,
      "inputs": [
        {
          "indexed": false,
          "internalType": "uint256",
          "name": "_transportId",
          "type": "uint256"
        }
      ],
      "name": "TransportFinalised",
      "type": "event"
    },
    {
      "anonymous": false,
      "inputs": [
        {
          "indexed": true,
          "internalType": "uint256",
          "name": "_transportId",
          "type": "uint256"
        }
      ],
      "name": "TransportInitiated",
      "type": "event"
    },
    {
      "anonymous": false,
      "inputs": [
        {
          "indexed": false,
          "internalType": "uint256",
          "name": "_transportId",
          "type": "uint256"
        },
        {
          "indexed": false,
          "internalType": "bool",
          "name": "_inTransit",
          "type": "bool"
        }
      ],
      "name": "TransportTransit",
      "type": "event"
    },
    {
      "inputs": [],
      "name": "_aggregator",
      "outputs": [
        {
          "internalType": "address",
          "name": "",
          "type": "address"
        }
      ],
      "stateMutability": "view",
      "type": "function"
    },
    {
      "inputs": [],
      "name": "aggregator",
      "outputs": [
        {
          "internalType": "address",
          "name": "",
          "type": "address"
        }
      ],
      "stateMutability": "view",
      "type": "function"
    },
    {
      "inputs": [],
      "name": "certificateAuthorityManagerAddress",
      "outputs": [
        {
          "internalType": "address",
          "name": "",
          "type": "address"
        }
      ],
      "stateMutability": "view",
      "type": "function"
    },
    {
      "inputs": [
        {
          "internalType": "address",
          "name": "",
          "type": "address"
        }
      ],
      "name": "companies",
      "outputs": [
        {
          "internalType": "enum Company.EntityTypeEnum",
          "name": "entityType",
          "type": "uint8"
        },
        {
          "internalType": "string",
          "name": "name",
          "type": "string"
        },
        {
          "internalType": "bool",
          "name": "isValue",
          "type": "bool"
        }
      ],
      "stateMutability": "view",
      "type": "function"
    },
    {
      "inputs": [
        {
          "internalType": "uint256",
          "name": "_transportId",
          "type": "uint256"
        },
        {
          "internalType": "string",
          "name": "_hashedPassword",
          "type": "string"
        }
      ],
      "name": "finaliseTransport",
      "outputs": [],
      "stateMutability": "nonpayable",
      "type": "function"
    },
    {
      "inputs": [
        {
          "internalType": "uint256",
          "name": "_transportId",
          "type": "uint256"
        }
      ],
      "name": "finaliseTransport",
      "outputs": [],
      "stateMutability": "nonpayable",
      "type": "function"
    },
    {
      "inputs": [],
      "name": "getCertificateAuthorityManagerContract",
      "outputs": [
        {
          "internalType": "contract CertificateAuthorityManager",
          "name": "",
          "type": "address"
        }
      ],
      "stateMutability": "nonpayable",
      "type": "function"
    },
    {
      "inputs": [],
      "name": "getMasterAddress",
      "outputs": [
        {
          "internalType": "address",
          "name": "",
          "type": "address"
        }
      ],
      "stateMutability": "view",
      "type": "function"
    },
    {
      "inputs": [],
      "name": "getMaterialContract",
      "outputs": [
        {
          "internalType": "contract Material",
          "name": "",
          "type": "address"
        }
      ],
      "stateMutability": "nonpayable",
      "type": "function"
    },
    {
      "inputs": [
        {
          "internalType": "address",
          "name": "_receiver",
          "type": "address"
        },
        {
          "internalType": "address",
          "name": "_transportCompany",
          "type": "address"
        },
        {
          "internalType": "uint256[]",
          "name": "_batchIds",
          "type": "uint256[]"
        }
      ],
      "name": "initiateTransport",
      "outputs": [],
      "stateMutability": "nonpayable",
      "type": "function"
    },
    {
      "inputs": [
        {
          "internalType": "address",
          "name": "_receiver",
          "type": "address"
        },
        {
          "internalType": "address",
          "name": "_transportCompany",
          "type": "address"
        },
        {
          "internalType": "uint256[]",
          "name": "_batchIds",
          "type": "uint256[]"
        },
        {
          "internalType": "string",
          "name": "_hashedPassword",
          "type": "string"
        }
      ],
      "name": "initiateTransport",
      "outputs": [],
      "stateMutability": "nonpayable",
      "type": "function"
    },
    {
      "inputs": [],
      "name": "owner",
      "outputs": [
        {
          "internalType": "address",
          "name": "",
          "type": "address"
        }
      ],
      "stateMutability": "view",
      "type": "function"
    },
    {
      "inputs": [],
      "name": "renounceOwnership",
      "outputs": [],
      "stateMutability": "nonpayable",
      "type": "function"
    },
    {
      "inputs": [
        {
          "internalType": "uint256",
          "name": "_transportId",
          "type": "uint256"
        },
        {
          "internalType": "bool",
          "name": "_transitValue",
          "type": "bool"
        }
      ],
      "name": "setTransit",
      "outputs": [],
      "stateMutability": "nonpayable",
      "type": "function"
    },
    {
      "inputs": [
        {
          "internalType": "address",
          "name": "newOwner",
          "type": "address"
        }
      ],
      "name": "transferOwnership",
      "outputs": [],
      "stateMutability": "nonpayable",
      "type": "function"
    },
    {
      "inputs": [],
      "name": "transportId",
      "outputs": [
        {
          "internalType": "uint256",
          "name": "",
          "type": "uint256"
        }
      ],
      "stateMutability": "view",
      "type": "function"
    },
    {
      "inputs": [
        {
          "internalType": "uint256",
          "name": "",
          "type": "uint256"
        }
      ],
      "name": "transports",
      "outputs": [
        {
          "internalType": "address",
          "name": "sender",
          "type": "address"
        },
        {
          "internalType": "address",
          "name": "receiver",
          "type": "address"
        },
        {
          "internalType": "address",
          "name": "transportCompany",
          "type": "address"
        },
        {
          "internalType": "uint256",
          "name": "value",
          "type": "uint256"
        },
        {
          "internalType": "bool",
          "name": "readyForShipment",
          "type": "bool"
        },
        {
          "internalType": "bool",
          "name": "inTransit",
          "type": "bool"
        },
        {
          "internalType": "bool",
          "name": "finalised",
          "type": "bool"
        },
        {
          "internalType": "string",
          "name": "hashedPassword",
          "type": "string"
        }
      ],
      "stateMutability": "view",
      "type": "function"
    },
    {
      "inputs": [
        {
          "internalType": "string",
          "name": "_name",
          "type": "string"
        },
        {
          "internalType": "enum Company.EntityTypeEnum",
          "name": "_entityType",
          "type": "uint8"
        }
      ],
      "name": "create",
      "outputs": [],
      "stateMutability": "nonpayable",
      "type": "function"
    },
    {
      "inputs": [
        {
          "internalType": "address",
          "name": "_addr",
          "type": "address"
        }
      ],
      "name": "getCompany",
      "outputs": [
        {
          "components": [
            {
              "internalType": "enum Company.EntityTypeEnum",
              "name": "entityType",
              "type": "uint8"
            },
            {
              "internalType": "string",
              "name": "name",
              "type": "string"
            },
            {
              "components": [
                {
                  "internalType": "uint256",
                  "name": "code",
                  "type": "uint256"
                },
                {
                  "internalType": "uint256",
                  "name": "time",
                  "type": "uint256"
                },
                {
                  "internalType": "uint256",
                  "name": "stake",
                  "type": "uint256"
                }
              ],
              "internalType": "struct Company.CertificateInstance[]",
              "name": "certificates",
              "type": "tuple[]"
            },
            {
              "internalType": "bool",
              "name": "isValue",
              "type": "bool"
            }
          ],
          "internalType": "struct Company.CompanyInfo",
          "name": "",
          "type": "tuple"
        }
      ],
      "stateMutability": "view",
      "type": "function"
    },
    {
      "inputs": [
        {
          "internalType": "uint256",
          "name": "_certificateCode",
          "type": "uint256"
        },
        {
          "internalType": "address",
          "name": "_company",
          "type": "address"
        }
      ],
      "name": "assignCertificate",
      "outputs": [],
      "stateMutability": "payable",
      "type": "function"
    },
    {
      "inputs": [
        {
          "internalType": "uint256",
          "name": "_certificateCode",
          "type": "uint256"
        }
      ],
      "name": "assignCertificate",
      "outputs": [],
      "stateMutability": "payable",
      "type": "function"
    },
    {
      "inputs": [
        {
          "internalType": "uint256",
          "name": "_certificateCode",
          "type": "uint256"
        }
      ],
      "name": "cancelCertificate",
      "outputs": [],
      "stateMutability": "nonpayable",
      "type": "function"
    },
    {
      "inputs": [
        {
          "internalType": "uint256",
          "name": "_certificateCode",
          "type": "uint256"
        },
        {
          "internalType": "address",
          "name": "_company",
          "type": "address"
        }
      ],
      "name": "cancelCertificate",
      "outputs": [],
      "stateMutability": "nonpayable",
      "type": "function"
    },
    {
      "inputs": [],
      "name": "revokeCertificate",
      "outputs": [],
      "stateMutability": "view",
      "type": "function"
    },
    {
      "inputs": [
        {
          "internalType": "uint256",
          "name": "_certificateCode",
          "type": "uint256"
        },
        {
          "internalType": "address",
          "name": "_company",
          "type": "address"
        }
      ],
      "name": "revokeCertificate",
      "outputs": [],
      "stateMutability": "nonpayable",
      "type": "function"
    },
    {
      "inputs": [
        {
          "internalType": "address",
          "name": "_company",
          "type": "address"
        },
        {
          "internalType": "uint256",
          "name": "_index",
          "type": "uint256"
        }
      ],
      "name": "getCompanyCertificate",
      "outputs": [
        {
          "components": [
            {
              "internalType": "uint256",
              "name": "code",
              "type": "uint256"
            },
            {
              "internalType": "uint256",
              "name": "time",
              "type": "uint256"
            },
            {
              "internalType": "uint256",
              "name": "stake",
              "type": "uint256"
            }
          ],
          "internalType": "struct Company.CertificateInstance",
          "name": "",
          "type": "tuple"
        }
      ],
      "stateMutability": "view",
      "type": "function"
    },
    {
      "inputs": [
        {
          "internalType": "address",
          "name": "_company",
          "type": "address"
        }
      ],
      "name": "getCompanyCertificate",
      "outputs": [
        {
          "components": [
            {
              "internalType": "uint256",
              "name": "code",
              "type": "uint256"
            },
            {
              "internalType": "uint256",
              "name": "time",
              "type": "uint256"
            },
            {
              "internalType": "uint256",
              "name": "stake",
              "type": "uint256"
            }
          ],
          "internalType": "struct Company.CertificateInstance",
          "name": "",
          "type": "tuple"
        }
      ],
      "stateMutability": "view",
      "type": "function"
    }
  ],
  "bytecode": "0x608060405260006007553480156200001657600080fd5b5060405162002c8238038062002c828339810160408190526200003991620000bd565b600180546001600160a01b038084166001600160a01b0319928316179092556000805492851692909116821781556040518492849284927f8be0079c531659141344cd1fd0a4f28419497f9722a3daafe3b4186f6b6457e0908290a35050505050620000f4565b80516001600160a01b0381168114620000b857600080fd5b919050565b60008060408385031215620000d0578182fd5b620000db83620000a0565b9150620000eb60208401620000a0565b90509250929050565b612b7e80620001046000396000f3fe60806040526004361061019c5760003560e01c80635e6cd8de116100ec5780639d07ca0f1161008a578063d1a1e68311610064578063d1a1e6831461048c578063de8f2e8d146104ac578063e7299840146104cc578063f2fde38b146104ec5761019c565b80639d07ca0f14610437578063b9a6f15314610457578063c11ba855146104775761019c565b80638da5cb5b116100c65780638da5cb5b146103b257806393b00d32146103d057806397e4c49f146103f05780639bae0328146104035761019c565b80635e6cd8de1461034357806362bc56e614610370578063715018a61461039d5761019c565b8063245a7bfc116101595780634fbdd6ea116101335780634fbdd6ea146102ce57806352e1491c146102ee57806353ab81741461030e578063568c00d81461032e5761019c565b8063245a7bfc1461025d5780632826c3301461027b578063355e6ce81461029f5761019c565b8063054c6c59146101a15780630d25a141146101b65780630dfdfccd146101e857806314e6047c146102085780631d0f5aae1461021d5780632008ad6d1461023d575b600080fd5b6101b46101af3660046125bb565b61050c565b005b3480156101c257600080fd5b506101cb61057b565b6040516001600160a01b0390911681526020015b60405180910390f35b3480156101f457600080fd5b506101b461020336600461258b565b610605565b34801561021457600080fd5b506101b46106ca565b34801561022957600080fd5b506101b46102383660046125df565b610751565b34801561024957600080fd5b506101b461025836600461236b565b6108eb565b34801561026957600080fd5b506001546001600160a01b03166101cb565b34801561028757600080fd5b5061029160075481565b6040519081526020016101df565b3480156102ab57600080fd5b506102bf6102ba36600461232c565b610c55565b6040516101df93929190612809565b3480156102da57600080fd5b506101b46102e9366004612603565b610d07565b3480156102fa57600080fd5b506001546101cb906001600160a01b031681565b34801561031a57600080fd5b506101b46103293660046123cb565b610f91565b34801561033a57600080fd5b506101cb611101565b34801561034f57600080fd5b5061036361035e366004612451565b6111da565b6040516101df9190612936565b34801561037c57600080fd5b5061039061038b36600461232c565b611279565b6040516101df9190612957565b3480156103a957600080fd5b506101b4611436565b3480156103be57600080fd5b506000546001600160a01b03166101cb565b3480156103dc57600080fd5b506101b46103eb36600461258b565b6114e9565b6101b46103fe36600461258b565b61175c565b34801561040f57600080fd5b5061042361041e36600461258b565b6118ec565b6040516101df98979695949392919061274d565b34801561044357600080fd5b5061036361045236600461232c565b6119e6565b34801561046357600080fd5b506101b46104723660046125bb565b611a8f565b34801561048357600080fd5b506101cb611cb6565b34801561049857600080fd5b506003546101cb906001600160a01b031681565b3480156104b857600080fd5b506101b46104c73660046124cc565b611d8f565b3480156104d857600080fd5b506101b46104e73660046125bb565b611e4f565b3480156104f857600080fd5b506101b461050736600461232c565b612012565b6105158261175c565b60408051606081018252928352426020808501918252348584019081526001600160a01b03909416600090815260088252928320600290810180546001818101835591865292909420955160039092029095019081559051918101919091559051910155565b600061058f6001546001600160a01b031690565b6001600160a01b031663d365a08e6040518163ffffffff1660e01b815260040160206040518083038186803b1580156105c757600080fd5b505afa1580156105db573d6000803e3d6000fd5b505050506040513d601f19601f820116820180604052508101906105ff919061234f565b90505b90565b600061060f611101565b604051630c5a771d60e31b8152600481018490529091506000906001600160a01b038316906362d3b8e89060240160006040518083038186803b15801561065557600080fd5b505afa158015610669573d6000803e3d6000fd5b505050506040513d6000823e601f3d908101601f19168201604052610691919081019061247c565b9150506001600160a01b03811633146106c55760405162461bcd60e51b81526004016106bc90612881565b60405180910390fd5b505050565b336106d361057b565b6001600160a01b03161461074f5760405162461bcd60e51b815260206004820152603d60248201527f596f75206e65656420746f20626520746865206f776e6572206f66207468652060448201527f666163746f727920696e206f7264657220746f207265766f6b6520697400000060648201526084016106bc565b565b817f4e7ba7e77d5158628b37c0792c323a38764db35244b9c67ef8edb875fd425e0a6006828154811061079457634e487b7160e01b600052603260045260246000fd5b600091825260209182902060079091020160020154604080516001600160a01b03909216825233928201929092520160405180910390a182600681815481106107ed57634e487b7160e01b600052603260045260246000fd5b600091825260209091206007909102016005015462010000900460ff16156108575760405162461bcd60e51b815260206004820152601b60248201527f54686973207472616e73706f72742069732066696e616c697a6564000000000060448201526064016106bc565b826006858154811061087957634e487b7160e01b600052603260045260246000fd5b906000526020600020906007020160050160016101000a81548160ff0219169083151502179055507ffbd883790f235339e9e9891249a65c5a378fd2dd0625a2539b44926502cad9d684846040516108dd9291909182521515602082015260400190565b60405180910390a150505050565b8060005b81518160ff1610156109f2576000610905611cb6565b6001600160a01b0316630eaa75fe848460ff168151811061093657634e487b7160e01b600052603260045260246000fd5b60200260200101516040518263ffffffff1660e01b815260040161095c91815260200190565b60006040518083038186803b15801561097457600080fd5b505afa158015610988573d6000803e3d6000fd5b505050506040513d6000823e601f3d908101601f191682016040526109b09190810190612514565b50935050506001600160a01b038216331490506109df5760405162461bcd60e51b81526004016106bc906128f2565b50806109ea81612ad6565b9150506108ef565b50336001600160a01b0385161415610a5c5760405162461bcd60e51b815260206004820152602760248201527f43616e6e6f7420696e6974696174652061207472616e73706f727420746f207960448201526637bab939b2b63360c91b60648201526084016106bc565b60408051610120810182523381526001600160a01b0386811660208084019182528783168486019081526060850188815260006080870181905260a0870181905260c0870181905260e08701819052875180850190985280885261010087019790975260068054600181018255975285517ff652222313e28459528d920b65115c16c04f3efc82aaedc97be59f3f377c0d3f600790980297880180546001600160a01b031990811692881692909217815594517ff652222313e28459528d920b65115c16c04f3efc82aaedc97be59f3f377c0d4089018054831691881691909117905591517ff652222313e28459528d920b65115c16c04f3efc82aaedc97be59f3f377c0d4188018054909316951694909417905591518051939485949293610bab937ff652222313e28459528d920b65115c16c04f3efc82aaedc97be59f3f377c0d4290920192019061213b565b506080820151600482015560a082015160058201805460c085015160e086015160ff199092169315159390931761ff00191661010093151584021762ff0000191662010000911515919091021790558201518051610c13916006840191602090910190612186565b5050600654610c259150600190612a58565b6040517f5ece7f15aaf7fe889d9e7fcab1d19ec86cc33bd923e0ffb28a7c187bacd8285690600090a25050505050565b6008602052600090815260409020805460018201805460ff9092169291610c7b90612a9b565b80601f0160208091040260200160405190810160405280929190818152602001828054610ca790612a9b565b8015610cf45780601f10610cc957610100808354040283529160200191610cf4565b820191906000526020600020905b815481529060010190602001808311610cd757829003601f168201915b5050506003909301549192505060ff1683565b81336001600160a01b031660068281548110610d3357634e487b7160e01b600052603260045260246000fd5b60009182526020909120600160079092020101546001600160a01b031614610d6d5760405162461bcd60e51b81526004016106bc9061283b565b81604051602001610d7e9190612696565b6040516020818303038152906040528051906020012060068481548110610db557634e487b7160e01b600052603260045260246000fd5b9060005260206000209060070201600601604051602001610dd691906126b2565b6040516020818303038152906040528051906020012014610e2e5760405162461bcd60e51b8152602060048201526012602482015271125b98dbdc9c9958dd081c185cdcdddbdc9960721b60448201526064016106bc565b600160068481548110610e5157634e487b7160e01b600052603260045260246000fd5b906000526020600020906007020160050160026101000a81548160ff021916908315150217905550610e81611cb6565b6001600160a01b0316630fc4505460068581548110610eb057634e487b7160e01b600052603260045260246000fd5b906000526020600020906007020160030160068681548110610ee257634e487b7160e01b600052603260045260246000fd5b60009182526020909120600160079092020101546040516001600160e01b031960e085901b168152610f2192916001600160a01b0316906004016127b0565b600060405180830381600087803b158015610f3b57600080fd5b505af1158015610f4f573d6000803e3d6000fd5b505050507f643958c9e6e2736303a28e6b9b1b1466a711f6f8cfa7d664919728de2c628ea183604051610f8491815260200190565b60405180910390a1505050565b8160005b81518160ff161015611098576000610fab611cb6565b6001600160a01b0316630eaa75fe848460ff1681518110610fdc57634e487b7160e01b600052603260045260246000fd5b60200260200101516040518263ffffffff1660e01b815260040161100291815260200190565b60006040518083038186803b15801561101a57600080fd5b505afa15801561102e573d6000803e3d6000fd5b505050506040513d6000823e601f3d908101601f191682016040526110569190810190612514565b50935050506001600160a01b038216331490506110855760405162461bcd60e51b81526004016106bc906128f2565b508061109081612ad6565b915050610f95565b506110a48585856108eb565b600680548391906110b790600190612a58565b815481106110d557634e487b7160e01b600052603260045260246000fd5b906000526020600020906007020160060190805190602001906110f9929190612186565b505050505050565b6003546000906001600160a01b03166111ca576001546001600160a01b03166001600160a01b0316634d14688e6040518163ffffffff1660e01b815260040160206040518083038186803b15801561115857600080fd5b505afa15801561116c573d6000803e3d6000fd5b505050506040513d601f19601f82011682018060405250810190611190919061234f565b600380546001600160a01b039283166001600160a01b03199182161791829055600280549091169183169190911790819055169050610602565b506002546001600160a01b031690565b6111fe60405180606001604052806000815260200160008152602001600081525090565b6001600160a01b038316600090815260086020526040902060020180548390811061123957634e487b7160e01b600052603260045260246000fd5b9060005260206000209060030201604051806060016040529081600082015481526020016001820154815260200160028201548152505090505b92915050565b6112a46040805160808101909152806000815260606020820181905260408201819052600091015290565b6001600160a01b038216600090815260086020526040908190208151608081019092528054829060ff1660038111156112ed57634e487b7160e01b600052602160045260246000fd5b600381111561130c57634e487b7160e01b600052602160045260246000fd5b815260200160018201805461132090612a9b565b80601f016020809104026020016040519081016040528092919081815260200182805461134c90612a9b565b80156113995780601f1061136e57610100808354040283529160200191611399565b820191906000526020600020905b81548152906001019060200180831161137c57829003601f168201915b5050505050815260200160028201805480602002602001604051908101604052809291908181526020016000905b8282101561141757838290600052602060002090600302016040518060600160405290816000820154815260200160018201548152602001600282015481525050815260200190600101906113c7565b505050908252506003919091015460ff16151560209091015292915050565b336114496000546001600160a01b031690565b6001600160a01b03161461149f5760405162461bcd60e51b815260206004820181905260248201527f4f776e61626c653a2063616c6c6572206973206e6f7420746865206f776e657260448201526064016106bc565b600080546040516001600160a01b03909116907f8be0079c531659141344cd1fd0a4f28419497f9722a3daafe3b4186f6b6457e0908390a3600080546001600160a01b0319169055565b80336001600160a01b03166006828154811061151557634e487b7160e01b600052603260045260246000fd5b60009182526020909120600160079092020101546001600160a01b03161461154f5760405162461bcd60e51b81526004016106bc9061283b565b6006828154811061157057634e487b7160e01b600052603260045260246000fd5b9060005260206000209060070201600601805461158c90612a9b565b1590506115fa5760405162461bcd60e51b815260206004820152603660248201527f54686973207472616e73706f72742063616e206e6f742062652066696e616c696044820152751cd959081dda5d1a1bdd5d0818481c185cdcdddbdc9960521b60648201526084016106bc565b60016006838154811061161d57634e487b7160e01b600052603260045260246000fd5b906000526020600020906007020160050160026101000a81548160ff02191690831515021790555061164d611cb6565b6001600160a01b0316630fc450546006848154811061167c57634e487b7160e01b600052603260045260246000fd5b9060005260206000209060070201600301600685815481106116ae57634e487b7160e01b600052603260045260246000fd5b60009182526020909120600160079092020101546040516001600160e01b031960e085901b1681526116ed92916001600160a01b0316906004016127b0565b600060405180830381600087803b15801561170757600080fd5b505af115801561171b573d6000803e3d6000fd5b505050507f643958c9e6e2736303a28e6b9b1b1466a711f6f8cfa7d664919728de2c628ea18260405161175091815260200190565b60405180910390a15050565b6000611766611101565b604051630c5a771d60e31b8152600481018490529091506000906001600160a01b038316906362d3b8e89060240160006040518083038186803b1580156117ac57600080fd5b505afa1580156117c0573d6000803e3d6000fd5b505050506040513d6000823e601f3d908101601f191682016040526117e8919081019061247c565b9150506001600160a01b03811633146118135760405162461bcd60e51b81526004016106bc90612881565b816001600160a01b031663ec5ffac26040518163ffffffff1660e01b815260040160206040518083038186803b15801561184c57600080fd5b505afa158015611860573d6000803e3d6000fd5b505050506040513d601f19601f8201168201806040525081019061188491906125a3565b3410156106c55760405162461bcd60e51b815260206004820152603060248201527f5265636569766564207061796d656e74206973206c6f7765722074686174207460448201526f6865206d696e696d756d207374616b6560801b60648201526084016106bc565b600681815481106118fc57600080fd5b60009182526020909120600790910201805460018201546002830154600484015460058501546006860180546001600160a01b039687169850948616969590931694919360ff80831694610100840482169462010000909404909116929161196390612a9b565b80601f016020809104026020016040519081016040528092919081815260200182805461198f90612a9b565b80156119dc5780601f106119b1576101008083540402835291602001916119dc565b820191906000526020600020905b8154815290600101906020018083116119bf57829003601f168201915b5050505050905088565b611a0a60405180606001604052806000815260200160008152602001600081525090565b6001600160a01b03821660009081526008602052604090206002018054611a3390600190612a58565b81548110611a5157634e487b7160e01b600052603260045260246000fd5b906000526020600020906003020160405180606001604052908160008201548152602001600182015481526020016002820154815250509050919050565b611a9882610605565b6001600160a01b038116600090815260086020526040812060020154905b818160ff161015611c53576001600160a01b0383166000908152600860205260409020600201805485919060ff8416908110611b0257634e487b7160e01b600052603260045260246000fd5b9060005260206000209060030201600001541415611c41576001600160a01b0383166000908152600860205260409020600201611b40600184612a58565b81548110611b5e57634e487b7160e01b600052603260045260246000fd5b906000526020600020906003020160086000856001600160a01b03166001600160a01b031681526020019081526020016000206002018260ff1681548110611bb657634e487b7160e01b600052603260045260246000fd5b60009182526020808320845460039093020191825560018085015481840155600294850154928501929092556001600160a01b038716835260089052604090912090910190611c059084612a58565b81548110611c2357634e487b7160e01b600052603260045260246000fd5b60009182526020822060039091020181815560018101829055600201555b80611c4b81612ad6565b915050611ab6565b611c5e600183612a58565b8160ff161415611cb05760405162461bcd60e51b815260206004820152601a60248201527f436572746966696361746520636f6465206e6f7420666f756e6400000000000060448201526064016106bc565b50505050565b6005546000906001600160a01b0316611d7f576001546001600160a01b03166001600160a01b031663d4991cdb6040518163ffffffff1660e01b815260040160206040518083038186803b158015611d0d57600080fd5b505afa158015611d21573d6000803e3d6000fd5b505050506040513d601f19601f82011682018060405250810190611d45919061234f565b600580546001600160a01b039283166001600160a01b03199182161791829055600480549091169183169190911790819055169050610602565b506004546001600160a01b031690565b3360008181526008602090815260409091208451611db592600190920191860190612186565b506001600160a01b0381166000908152600860205260409020805483919060ff19166001836003811115611df957634e487b7160e01b600052602160045260246000fd5b02179055506001600160a01b038116600081815260086020526040808220600301805460ff19166001179055517fad7e9bd4b616efceb17865056b2c3695f4307311206ecb5e17cd372676b80abb9190a2505050565b611e576106ca565b6001600160a01b038116600090815260086020526040812060020154905b818160ff161015611c53576001600160a01b0383166000908152600860205260409020600201805485919060ff8416908110611ec157634e487b7160e01b600052603260045260246000fd5b9060005260206000209060030201600001541415612000576001600160a01b0383166000908152600860205260409020600201611eff600184612a58565b81548110611f1d57634e487b7160e01b600052603260045260246000fd5b906000526020600020906003020160086000856001600160a01b03166001600160a01b031681526020019081526020016000206002018260ff1681548110611f7557634e487b7160e01b600052603260045260246000fd5b60009182526020808320845460039093020191825560018085015481840155600294850154928501929092556001600160a01b038716835260089052604090912090910190611fc49084612a58565b81548110611fe257634e487b7160e01b600052603260045260246000fd5b60009182526020822060039091020181815560018101829055600201555b8061200a81612ad6565b915050611e75565b336120256000546001600160a01b031690565b6001600160a01b03161461207b5760405162461bcd60e51b815260206004820181905260248201527f4f776e61626c653a2063616c6c6572206973206e6f7420746865206f776e657260448201526064016106bc565b6001600160a01b0381166120e05760405162461bcd60e51b815260206004820152602660248201527f4f776e61626c653a206e6577206f776e657220697320746865207a65726f206160448201526564647265737360d01b60648201526084016106bc565b600080546040516001600160a01b03808516939216917f8be0079c531659141344cd1fd0a4f28419497f9722a3daafe3b4186f6b6457e091a3600080546001600160a01b0319166001600160a01b0392909216919091179055565b828054828255906000526020600020908101928215612176579160200282015b8281111561217657825182559160200191906001019061215b565b506121829291506121f9565b5090565b82805461219290612a9b565b90600052602060002090601f0160209004810192826121b45760008555612176565b82601f106121cd57805160ff1916838001178555612176565b82800160010185558215612176579182018281111561217657825182559160200191906001019061215b565b5b8082111561218257600081556001016121fa565b600082601f83011261221e578081fd5b8135602067ffffffffffffffff82111561223a5761223a612b0c565b8082026122488282016129ff565b838152828101908684018388018501891015612262578687fd5b8693505b85841015612284578035835260019390930192918401918401612266565b50979650505050505050565b600082601f8301126122a0578081fd5b81356122b36122ae82612a30565b6129ff565b8181528460208386010111156122c7578283fd5b816020850160208301379081016020019190915292915050565b600082601f8301126122f1578081fd5b81516122ff6122ae82612a30565b818152846020838601011115612313578283fd5b612324826020830160208701612a6f565b949350505050565b60006020828403121561233d578081fd5b813561234881612b22565b9392505050565b600060208284031215612360578081fd5b815161234881612b22565b60008060006060848603121561237f578182fd5b833561238a81612b22565b9250602084013561239a81612b22565b9150604084013567ffffffffffffffff8111156123b5578182fd5b6123c18682870161220e565b9150509250925092565b600080600080608085870312156123e0578081fd5b84356123eb81612b22565b935060208501356123fb81612b22565b9250604085013567ffffffffffffffff80821115612417578283fd5b6124238883890161220e565b93506060870135915080821115612438578283fd5b5061244587828801612290565b91505092959194509250565b60008060408385031215612463578182fd5b823561246e81612b22565b946020939093013593505050565b6000806040838503121561248e578182fd5b825167ffffffffffffffff8111156124a4578283fd5b6124b0858286016122e1565b92505060208301516124c181612b22565b809150509250929050565b600080604083850312156124de578182fd5b823567ffffffffffffffff8111156124f4578283fd5b61250085828601612290565b9250506020830135600481106124c1578182fd5b600080600080600060a0868803121561252b578081fd5b855167ffffffffffffffff811115612541578182fd5b61254d888289016122e1565b9550506020860151935060408601519250606086015161256c81612b22565b608087015190925061257d81612b3a565b809150509295509295909350565b60006020828403121561259c578081fd5b5035919050565b6000602082840312156125b4578081fd5b5051919050565b600080604083850312156125cd578182fd5b8235915060208301356124c181612b22565b600080604083850312156125f1578182fd5b8235915060208301356124c181612b3a565b60008060408385031215612615578182fd5b82359150602083013567ffffffffffffffff811115612632578182fd5b61263e85828601612290565b9150509250929050565b6004811061266657634e487b7160e01b600052602160045260246000fd5b9052565b60008151808452612682816020860160208601612a6f565b601f01601f19169290920160200192915050565b600082516126a8818460208701612a6f565b9190910192915050565b81546000908190600281046001808316806126ce57607f831692505b60208084108214156126ee57634e487b7160e01b87526022600452602487fd5b81801561270257600181146127135761273f565b60ff1986168952848901965061273f565b60008a815260209020885b868110156127375781548b82015290850190830161271e565b505084890196505b509498975050505050505050565b6001600160a01b03898116825288811660208301528716604082015260608101869052841515608082015283151560a082015282151560c082015261010060e082018190526000906127a18382018561266a565b9b9a5050505050505050505050565b6000604082016040835280855480835260608501915086845260209250828420845b828110156127ee578154845292840192600191820191016127d2565b5050506001600160a01b039490941692019190915250919050565b60006128158286612648565b60606020830152612829606083018561266a565b90508215156040830152949350505050565b60208082526026908201527f4f6e6c7920746865207472616e73706f727420726563656976657220697320616040820152651b1b1bddd95960d21b606082015260800190565b6020808252604b908201527f596f75206e65656420746f20626520746865206f776e6572206f66207468652060408201527f636572746966696361746520617574686f7269747920696e206f72646572207460608201526a1bc8185cdcda59db881a5d60aa1b608082015260a00190565b60208082526024908201527f596f7520617265206e6f7420746865206f776e6572206f6620616c6c206261746040820152636368657360e01b606082015260800190565b81518152602080830151908201526040808301519082015260608101611273565b6000602080835261296b8184018551612648565b808401516080604085015261298360a085018261266a565b6040860151858203601f19016060878101919091528151808452918501935085929091908501905b808410156129e6576129d28286518051825260208082015190830152604090810151910152565b9385019360019390930192908201906129ab565b5096015115156080959095019490945250929392505050565b604051601f8201601f1916810167ffffffffffffffff81118282101715612a2857612a28612b0c565b604052919050565b600067ffffffffffffffff821115612a4a57612a4a612b0c565b50601f01601f191660200190565b600082821015612a6a57612a6a612af6565b500390565b60005b83811015612a8a578181015183820152602001612a72565b83811115611cb05750506000910152565b600281046001821680612aaf57607f821691505b60208210811415612ad057634e487b7160e01b600052602260045260246000fd5b50919050565b600060ff821660ff811415612aed57612aed612af6565b60010192915050565b634e487b7160e01b600052601160045260246000fd5b634e487b7160e01b600052604160045260246000fd5b6001600160a01b0381168114612b3757600080fd5b50565b8015158114612b3757600080fdfea26469706673582212205293742b6c34482a6a66b2ef294128ef2a00bb6a1e3993c15e43f33db0c8a77064736f6c63430008020033",
  "immutableReferences": {},
  "source": "// SPDX-License-Identifier: MIT\npragma solidity >0.7.0 <0.9.0;\nimport './Certifiable.sol';\nimport './Shipper.sol';\n\ncontract Company is Certifiable, Shipper {\n    event CompanyCreate(address indexed owner);\n    enum EntityTypeEnum {MANUFACTURER, LOGISTIC, WAREHOUSE, RETAILER}\n    struct CertificateInstance {\n        uint256 code;\n        uint256 time;\n        uint256 stake;\n    }\n    struct CompanyInfo {\n        EntityTypeEnum entityType;\n        string name;\n        CertificateInstance[] certificates;\n        bool isValue;\n    }\n    mapping(address => CompanyInfo) public companies;\n\n    modifier doesNotHaveCompany {\n        require(companies[msg.sender].isValue == false, 'Address already has a company');\n        _;\n    }\n\n    constructor(address _masterAddress, address _factoryContractAddress)\n        Ownable(_masterAddress, _factoryContractAddress)\n    {}\n\n    function create(string memory _name, EntityTypeEnum _entityType) public {\n        address sender = msg.sender;\n        companies[sender].name = _name;\n        companies[sender].entityType = _entityType;\n        companies[sender].isValue = true;\n        emit CompanyCreate(sender);\n    }\n\n    function getCompany(address _addr) public view returns (CompanyInfo memory) {\n        return companies[_addr];\n    }\n\n    function assignCertificate(uint256 _certificateCode, address _company) public payable {\n        super.assignCertificate(_certificateCode);\n\n        CertificateInstance memory ci =\n            CertificateInstance({code: _certificateCode, time: block.timestamp, stake: msg.value});\n\n        companies[_company].certificates.push(ci);\n    }\n\n    function cancelCertificate(uint256 _certificateCode, address _company) public {\n        super.cancelCertificate(_certificateCode);\n        uint256 length = companies[_company].certificates.length;\n        uint8 i;\n        for (i = 0; i < length; i++) {\n            if (companies[_company].certificates[i].code == _certificateCode) {\n                companies[_company].certificates[i] = companies[_company].certificates[length - 1];\n                delete companies[_company].certificates[length - 1];\n            }\n        }\n        if (i == length - 1) {\n            revert('Certificate code not found');\n        }\n    }\n\n    function revokeCertificate(uint256 _certificateCode, address _company) public {\n        super.revokeCertificate();\n        uint256 length = companies[_company].certificates.length;\n        uint8 i;\n        for (i = 0; i < length; i++) {\n            if (companies[_company].certificates[i].code == _certificateCode) {\n                companies[_company].certificates[i] = companies[_company].certificates[length - 1];\n                // payable(certificateAuthorityManagerAddress).transfer(\n                //     100000000000000000\n                // );\n                delete companies[_company].certificates[length - 1];\n            }\n        }\n        if (i == length - 1) {\n            revert('Certificate code not found');\n        }\n    }\n\n    function getCompanyCertificate(address _company)\n        public\n        view\n        returns (CertificateInstance memory)\n    {\n        return companies[_company].certificates[companies[_company].certificates.length - 1];\n    }\n\n    function getCompanyCertificate(address _company, uint256 _index)\n        public\n        view\n        returns (CertificateInstance memory)\n    {\n        return companies[_company].certificates[_index];\n    }\n}\n",
  "sourcePath": "/home/alex/Desktop/proofchain/truffle/contracts/Company.sol",
  "compiler": {
    "name": "solc",
    "version": "0.8.2+commit.661d1103.Emscripten.clang"
  },
  "schemaVersion": "3.3.4",
  "updatedAt": "2021-03-09T12:23:37.652Z",
  "devdoc": {
    "kind": "dev",
    "methods": {
      "aggregator()": {
        "details": "Returns the address of the current aggregator."
      },
      "owner()": {
        "details": "Returns the address of the current owner."
      },
      "renounceOwnership()": {
        "details": "Leaves the contract without owner. It will not be possible to call `onlyOwner` functions anymore. Can only be called by the current owner. NOTE: Renouncing ownership will leave the contract without an owner, thereby removing any functionality that is only available to the owner."
      },
      "transferOwnership(address)": {
        "details": "Transfers ownership of the contract to a new account (`newOwner`). Can only be called by the current owner."
      }
    },
    "version": 1
  },
  "userdoc": {
    "kind": "user",
    "methods": {},
    "version": 1
  }
}