{
  "contractName": "Factory",
  "abi": [
    {
      "inputs": [],
      "stateMutability": "nonpayable",
      "type": "constructor"
    },
    {
      "inputs": [],
      "name": "aggregator",
      "outputs": [
        {
          "internalType": "address",
          "name": "",
          "type": "address"
        }
      ],
      "stateMutability": "view",
      "type": "function"
    },
    {
      "inputs": [],
      "name": "masterAddress",
      "outputs": [
        {
          "internalType": "address",
          "name": "",
          "type": "address"
        }
      ],
      "stateMutability": "view",
      "type": "function"
    }
  ],
  "bytecode": "0x608060405234801561001057600080fd5b50600180546001600160a01b0319163317905560405160009061003290610200565b604051809103906000f08015801561004e573d6000803e3d6000fd5b50600080546001600160a01b0319166001600160a01b038381169190911780835560015460405194955092939282169291169061008a9061020d565b6001600160a01b03928316815291166020820152604001604051809103906000f0801580156100bd573d6000803e3d6000fd5b5060015460008054604051939450849391926001600160a01b03908116929116906100e79061021a565b6001600160a01b03928316815291166020820152604001604051809103906000f08015801561011a573d6000803e3d6000fd5b5060015460008054604051939450849391926001600160a01b039081169291169061014490610227565b6001600160a01b03928316815291166020820152604001604051809103906000f080158015610177573d6000803e3d6000fd5b50600154604051635fcc4db760e11b81526001600160a01b03918216600482015286821660248201528482166044820152818316606482015291925082919088169063bf989b6e90608401600060405180830381600087803b1580156101dc57600080fd5b505af11580156101f0573d6000803e3d6000fd5b5050505050505050505050610234565b61026a806102ef83390190565b612c828061055983390190565b612ec6806131db83390190565b61082d806160a183390190565b60ad806102426000396000f3fe6080604052348015600f57600080fd5b506004361060325760003560e01c8063245a7bfc146037578063d365a08e146065575b600080fd5b6000546049906001600160a01b031681565b6040516001600160a01b03909116815260200160405180910390f35b6001546049906001600160a01b03168156fea2646970667358221220b81c3ec8b79ef0b0b36925576644c3f156d78bc9b0277efd234ecf5777c191fa64736f6c63430008020033608060405234801561001057600080fd5b50600480546001600160a01b03191633179055610238806100326000396000f3fe608060405234801561001057600080fd5b50600436106100625760003560e01c80634d14688e1461006757806375211fd0146100965780638da5cb5b146100a9578063bf989b6e146100bc578063d365a08e146100d1578063d4991cdb146100e4575b600080fd5b60025461007a906001600160a01b031681565b6040516001600160a01b03909116815260200160405180910390f35b60005461007a906001600160a01b031681565b60045461007a906001600160a01b031681565b6100cf6100ca3660046101af565b6100f7565b005b60035461007a906001600160a01b031681565b60015461007a906001600160a01b031681565b6004546001600160a01b031633146101435760405162461bcd60e51b815260206004820152600b60248201526a4f6e6c79206f776e65722160a81b604482015260640160405180910390fd5b600380546001600160a01b039586166001600160a01b0319918216179091556000805494861694821694909417909355600180549285169284169290921790915560028054919093169116179055565b80356001600160a01b03811681146101aa57600080fd5b919050565b600080600080608085870312156101c4578384fd5b6101cd85610193565b93506101db60208601610193565b92506101e960408601610193565b91506101f760608601610193565b90509295919450925056fea264697066735822122056083cae39809fa67a53623794312d92a08f09e2264938243b6d9ab8e11b270964736f6c63430008020033608060405260006007553480156200001657600080fd5b5060405162002c8238038062002c828339810160408190526200003991620000bd565b600180546001600160a01b038084166001600160a01b0319928316179092556000805492851692909116821781556040518492849284927f8be0079c531659141344cd1fd0a4f28419497f9722a3daafe3b4186f6b6457e0908290a35050505050620000f4565b80516001600160a01b0381168114620000b857600080fd5b919050565b60008060408385031215620000d0578182fd5b620000db83620000a0565b9150620000eb60208401620000a0565b90509250929050565b612b7e80620001046000396000f3fe60806040526004361061019c5760003560e01c80635e6cd8de116100ec5780639d07ca0f1161008a578063d1a1e68311610064578063d1a1e6831461048c578063de8f2e8d146104ac578063e7299840146104cc578063f2fde38b146104ec5761019c565b80639d07ca0f14610437578063b9a6f15314610457578063c11ba855146104775761019c565b80638da5cb5b116100c65780638da5cb5b146103b257806393b00d32146103d057806397e4c49f146103f05780639bae0328146104035761019c565b80635e6cd8de1461034357806362bc56e614610370578063715018a61461039d5761019c565b8063245a7bfc116101595780634fbdd6ea116101335780634fbdd6ea146102ce57806352e1491c146102ee57806353ab81741461030e578063568c00d81461032e5761019c565b8063245a7bfc1461025d5780632826c3301461027b578063355e6ce81461029f5761019c565b8063054c6c59146101a15780630d25a141146101b65780630dfdfccd146101e857806314e6047c146102085780631d0f5aae1461021d5780632008ad6d1461023d575b600080fd5b6101b46101af3660046125bb565b61050c565b005b3480156101c257600080fd5b506101cb61057b565b6040516001600160a01b0390911681526020015b60405180910390f35b3480156101f457600080fd5b506101b461020336600461258b565b610605565b34801561021457600080fd5b506101b46106ca565b34801561022957600080fd5b506101b46102383660046125df565b610751565b34801561024957600080fd5b506101b461025836600461236b565b6108eb565b34801561026957600080fd5b506001546001600160a01b03166101cb565b34801561028757600080fd5b5061029160075481565b6040519081526020016101df565b3480156102ab57600080fd5b506102bf6102ba36600461232c565b610c55565b6040516101df93929190612809565b3480156102da57600080fd5b506101b46102e9366004612603565b610d07565b3480156102fa57600080fd5b506001546101cb906001600160a01b031681565b34801561031a57600080fd5b506101b46103293660046123cb565b610f91565b34801561033a57600080fd5b506101cb611101565b34801561034f57600080fd5b5061036361035e366004612451565b6111da565b6040516101df9190612936565b34801561037c57600080fd5b5061039061038b36600461232c565b611279565b6040516101df9190612957565b3480156103a957600080fd5b506101b4611436565b3480156103be57600080fd5b506000546001600160a01b03166101cb565b3480156103dc57600080fd5b506101b46103eb36600461258b565b6114e9565b6101b46103fe36600461258b565b61175c565b34801561040f57600080fd5b5061042361041e36600461258b565b6118ec565b6040516101df98979695949392919061274d565b34801561044357600080fd5b5061036361045236600461232c565b6119e6565b34801561046357600080fd5b506101b46104723660046125bb565b611a8f565b34801561048357600080fd5b506101cb611cb6565b34801561049857600080fd5b506003546101cb906001600160a01b031681565b3480156104b857600080fd5b506101b46104c73660046124cc565b611d8f565b3480156104d857600080fd5b506101b46104e73660046125bb565b611e4f565b3480156104f857600080fd5b506101b461050736600461232c565b612012565b6105158261175c565b60408051606081018252928352426020808501918252348584019081526001600160a01b03909416600090815260088252928320600290810180546001818101835591865292909420955160039092029095019081559051918101919091559051910155565b600061058f6001546001600160a01b031690565b6001600160a01b031663d365a08e6040518163ffffffff1660e01b815260040160206040518083038186803b1580156105c757600080fd5b505afa1580156105db573d6000803e3d6000fd5b505050506040513d601f19601f820116820180604052508101906105ff919061234f565b90505b90565b600061060f611101565b604051630c5a771d60e31b8152600481018490529091506000906001600160a01b038316906362d3b8e89060240160006040518083038186803b15801561065557600080fd5b505afa158015610669573d6000803e3d6000fd5b505050506040513d6000823e601f3d908101601f19168201604052610691919081019061247c565b9150506001600160a01b03811633146106c55760405162461bcd60e51b81526004016106bc90612881565b60405180910390fd5b505050565b336106d361057b565b6001600160a01b03161461074f5760405162461bcd60e51b815260206004820152603d60248201527f596f75206e65656420746f20626520746865206f776e6572206f66207468652060448201527f666163746f727920696e206f7264657220746f207265766f6b6520697400000060648201526084016106bc565b565b817f4e7ba7e77d5158628b37c0792c323a38764db35244b9c67ef8edb875fd425e0a6006828154811061079457634e487b7160e01b600052603260045260246000fd5b600091825260209182902060079091020160020154604080516001600160a01b03909216825233928201929092520160405180910390a182600681815481106107ed57634e487b7160e01b600052603260045260246000fd5b600091825260209091206007909102016005015462010000900460ff16156108575760405162461bcd60e51b815260206004820152601b60248201527f54686973207472616e73706f72742069732066696e616c697a6564000000000060448201526064016106bc565b826006858154811061087957634e487b7160e01b600052603260045260246000fd5b906000526020600020906007020160050160016101000a81548160ff0219169083151502179055507ffbd883790f235339e9e9891249a65c5a378fd2dd0625a2539b44926502cad9d684846040516108dd9291909182521515602082015260400190565b60405180910390a150505050565b8060005b81518160ff1610156109f2576000610905611cb6565b6001600160a01b0316630eaa75fe848460ff168151811061093657634e487b7160e01b600052603260045260246000fd5b60200260200101516040518263ffffffff1660e01b815260040161095c91815260200190565b60006040518083038186803b15801561097457600080fd5b505afa158015610988573d6000803e3d6000fd5b505050506040513d6000823e601f3d908101601f191682016040526109b09190810190612514565b50935050506001600160a01b038216331490506109df5760405162461bcd60e51b81526004016106bc906128f2565b50806109ea81612ad6565b9150506108ef565b50336001600160a01b0385161415610a5c5760405162461bcd60e51b815260206004820152602760248201527f43616e6e6f7420696e6974696174652061207472616e73706f727420746f207960448201526637bab939b2b63360c91b60648201526084016106bc565b60408051610120810182523381526001600160a01b0386811660208084019182528783168486019081526060850188815260006080870181905260a0870181905260c0870181905260e08701819052875180850190985280885261010087019790975260068054600181018255975285517ff652222313e28459528d920b65115c16c04f3efc82aaedc97be59f3f377c0d3f600790980297880180546001600160a01b031990811692881692909217815594517ff652222313e28459528d920b65115c16c04f3efc82aaedc97be59f3f377c0d4089018054831691881691909117905591517ff652222313e28459528d920b65115c16c04f3efc82aaedc97be59f3f377c0d4188018054909316951694909417905591518051939485949293610bab937ff652222313e28459528d920b65115c16c04f3efc82aaedc97be59f3f377c0d4290920192019061213b565b506080820151600482015560a082015160058201805460c085015160e086015160ff199092169315159390931761ff00191661010093151584021762ff0000191662010000911515919091021790558201518051610c13916006840191602090910190612186565b5050600654610c259150600190612a58565b6040517f5ece7f15aaf7fe889d9e7fcab1d19ec86cc33bd923e0ffb28a7c187bacd8285690600090a25050505050565b6008602052600090815260409020805460018201805460ff9092169291610c7b90612a9b565b80601f0160208091040260200160405190810160405280929190818152602001828054610ca790612a9b565b8015610cf45780601f10610cc957610100808354040283529160200191610cf4565b820191906000526020600020905b815481529060010190602001808311610cd757829003601f168201915b5050506003909301549192505060ff1683565b81336001600160a01b031660068281548110610d3357634e487b7160e01b600052603260045260246000fd5b60009182526020909120600160079092020101546001600160a01b031614610d6d5760405162461bcd60e51b81526004016106bc9061283b565b81604051602001610d7e9190612696565b6040516020818303038152906040528051906020012060068481548110610db557634e487b7160e01b600052603260045260246000fd5b9060005260206000209060070201600601604051602001610dd691906126b2565b6040516020818303038152906040528051906020012014610e2e5760405162461bcd60e51b8152602060048201526012602482015271125b98dbdc9c9958dd081c185cdcdddbdc9960721b60448201526064016106bc565b600160068481548110610e5157634e487b7160e01b600052603260045260246000fd5b906000526020600020906007020160050160026101000a81548160ff021916908315150217905550610e81611cb6565b6001600160a01b0316630fc4505460068581548110610eb057634e487b7160e01b600052603260045260246000fd5b906000526020600020906007020160030160068681548110610ee257634e487b7160e01b600052603260045260246000fd5b60009182526020909120600160079092020101546040516001600160e01b031960e085901b168152610f2192916001600160a01b0316906004016127b0565b600060405180830381600087803b158015610f3b57600080fd5b505af1158015610f4f573d6000803e3d6000fd5b505050507f643958c9e6e2736303a28e6b9b1b1466a711f6f8cfa7d664919728de2c628ea183604051610f8491815260200190565b60405180910390a1505050565b8160005b81518160ff161015611098576000610fab611cb6565b6001600160a01b0316630eaa75fe848460ff1681518110610fdc57634e487b7160e01b600052603260045260246000fd5b60200260200101516040518263ffffffff1660e01b815260040161100291815260200190565b60006040518083038186803b15801561101a57600080fd5b505afa15801561102e573d6000803e3d6000fd5b505050506040513d6000823e601f3d908101601f191682016040526110569190810190612514565b50935050506001600160a01b038216331490506110855760405162461bcd60e51b81526004016106bc906128f2565b508061109081612ad6565b915050610f95565b506110a48585856108eb565b600680548391906110b790600190612a58565b815481106110d557634e487b7160e01b600052603260045260246000fd5b906000526020600020906007020160060190805190602001906110f9929190612186565b505050505050565b6003546000906001600160a01b03166111ca576001546001600160a01b03166001600160a01b0316634d14688e6040518163ffffffff1660e01b815260040160206040518083038186803b15801561115857600080fd5b505afa15801561116c573d6000803e3d6000fd5b505050506040513d601f19601f82011682018060405250810190611190919061234f565b600380546001600160a01b039283166001600160a01b03199182161791829055600280549091169183169190911790819055169050610602565b506002546001600160a01b031690565b6111fe60405180606001604052806000815260200160008152602001600081525090565b6001600160a01b038316600090815260086020526040902060020180548390811061123957634e487b7160e01b600052603260045260246000fd5b9060005260206000209060030201604051806060016040529081600082015481526020016001820154815260200160028201548152505090505b92915050565b6112a46040805160808101909152806000815260606020820181905260408201819052600091015290565b6001600160a01b038216600090815260086020526040908190208151608081019092528054829060ff1660038111156112ed57634e487b7160e01b600052602160045260246000fd5b600381111561130c57634e487b7160e01b600052602160045260246000fd5b815260200160018201805461132090612a9b565b80601f016020809104026020016040519081016040528092919081815260200182805461134c90612a9b565b80156113995780601f1061136e57610100808354040283529160200191611399565b820191906000526020600020905b81548152906001019060200180831161137c57829003601f168201915b5050505050815260200160028201805480602002602001604051908101604052809291908181526020016000905b8282101561141757838290600052602060002090600302016040518060600160405290816000820154815260200160018201548152602001600282015481525050815260200190600101906113c7565b505050908252506003919091015460ff16151560209091015292915050565b336114496000546001600160a01b031690565b6001600160a01b03161461149f5760405162461bcd60e51b815260206004820181905260248201527f4f776e61626c653a2063616c6c6572206973206e6f7420746865206f776e657260448201526064016106bc565b600080546040516001600160a01b03909116907f8be0079c531659141344cd1fd0a4f28419497f9722a3daafe3b4186f6b6457e0908390a3600080546001600160a01b0319169055565b80336001600160a01b03166006828154811061151557634e487b7160e01b600052603260045260246000fd5b60009182526020909120600160079092020101546001600160a01b03161461154f5760405162461bcd60e51b81526004016106bc9061283b565b6006828154811061157057634e487b7160e01b600052603260045260246000fd5b9060005260206000209060070201600601805461158c90612a9b565b1590506115fa5760405162461bcd60e51b815260206004820152603660248201527f54686973207472616e73706f72742063616e206e6f742062652066696e616c696044820152751cd959081dda5d1a1bdd5d0818481c185cdcdddbdc9960521b60648201526084016106bc565b60016006838154811061161d57634e487b7160e01b600052603260045260246000fd5b906000526020600020906007020160050160026101000a81548160ff02191690831515021790555061164d611cb6565b6001600160a01b0316630fc450546006848154811061167c57634e487b7160e01b600052603260045260246000fd5b9060005260206000209060070201600301600685815481106116ae57634e487b7160e01b600052603260045260246000fd5b60009182526020909120600160079092020101546040516001600160e01b031960e085901b1681526116ed92916001600160a01b0316906004016127b0565b600060405180830381600087803b15801561170757600080fd5b505af115801561171b573d6000803e3d6000fd5b505050507f643958c9e6e2736303a28e6b9b1b1466a711f6f8cfa7d664919728de2c628ea18260405161175091815260200190565b60405180910390a15050565b6000611766611101565b604051630c5a771d60e31b8152600481018490529091506000906001600160a01b038316906362d3b8e89060240160006040518083038186803b1580156117ac57600080fd5b505afa1580156117c0573d6000803e3d6000fd5b505050506040513d6000823e601f3d908101601f191682016040526117e8919081019061247c565b9150506001600160a01b03811633146118135760405162461bcd60e51b81526004016106bc90612881565b816001600160a01b031663ec5ffac26040518163ffffffff1660e01b815260040160206040518083038186803b15801561184c57600080fd5b505afa158015611860573d6000803e3d6000fd5b505050506040513d601f19601f8201168201806040525081019061188491906125a3565b3410156106c55760405162461bcd60e51b815260206004820152603060248201527f5265636569766564207061796d656e74206973206c6f7765722074686174207460448201526f6865206d696e696d756d207374616b6560801b60648201526084016106bc565b600681815481106118fc57600080fd5b60009182526020909120600790910201805460018201546002830154600484015460058501546006860180546001600160a01b039687169850948616969590931694919360ff80831694610100840482169462010000909404909116929161196390612a9b565b80601f016020809104026020016040519081016040528092919081815260200182805461198f90612a9b565b80156119dc5780601f106119b1576101008083540402835291602001916119dc565b820191906000526020600020905b8154815290600101906020018083116119bf57829003601f168201915b5050505050905088565b611a0a60405180606001604052806000815260200160008152602001600081525090565b6001600160a01b03821660009081526008602052604090206002018054611a3390600190612a58565b81548110611a5157634e487b7160e01b600052603260045260246000fd5b906000526020600020906003020160405180606001604052908160008201548152602001600182015481526020016002820154815250509050919050565b611a9882610605565b6001600160a01b038116600090815260086020526040812060020154905b818160ff161015611c53576001600160a01b0383166000908152600860205260409020600201805485919060ff8416908110611b0257634e487b7160e01b600052603260045260246000fd5b9060005260206000209060030201600001541415611c41576001600160a01b0383166000908152600860205260409020600201611b40600184612a58565b81548110611b5e57634e487b7160e01b600052603260045260246000fd5b906000526020600020906003020160086000856001600160a01b03166001600160a01b031681526020019081526020016000206002018260ff1681548110611bb657634e487b7160e01b600052603260045260246000fd5b60009182526020808320845460039093020191825560018085015481840155600294850154928501929092556001600160a01b038716835260089052604090912090910190611c059084612a58565b81548110611c2357634e487b7160e01b600052603260045260246000fd5b60009182526020822060039091020181815560018101829055600201555b80611c4b81612ad6565b915050611ab6565b611c5e600183612a58565b8160ff161415611cb05760405162461bcd60e51b815260206004820152601a60248201527f436572746966696361746520636f6465206e6f7420666f756e6400000000000060448201526064016106bc565b50505050565b6005546000906001600160a01b0316611d7f576001546001600160a01b03166001600160a01b031663d4991cdb6040518163ffffffff1660e01b815260040160206040518083038186803b158015611d0d57600080fd5b505afa158015611d21573d6000803e3d6000fd5b505050506040513d601f19601f82011682018060405250810190611d45919061234f565b600580546001600160a01b039283166001600160a01b03199182161791829055600480549091169183169190911790819055169050610602565b506004546001600160a01b031690565b3360008181526008602090815260409091208451611db592600190920191860190612186565b506001600160a01b0381166000908152600860205260409020805483919060ff19166001836003811115611df957634e487b7160e01b600052602160045260246000fd5b02179055506001600160a01b038116600081815260086020526040808220600301805460ff19166001179055517fad7e9bd4b616efceb17865056b2c3695f4307311206ecb5e17cd372676b80abb9190a2505050565b611e576106ca565b6001600160a01b038116600090815260086020526040812060020154905b818160ff161015611c53576001600160a01b0383166000908152600860205260409020600201805485919060ff8416908110611ec157634e487b7160e01b600052603260045260246000fd5b9060005260206000209060030201600001541415612000576001600160a01b0383166000908152600860205260409020600201611eff600184612a58565b81548110611f1d57634e487b7160e01b600052603260045260246000fd5b906000526020600020906003020160086000856001600160a01b03166001600160a01b031681526020019081526020016000206002018260ff1681548110611f7557634e487b7160e01b600052603260045260246000fd5b60009182526020808320845460039093020191825560018085015481840155600294850154928501929092556001600160a01b038716835260089052604090912090910190611fc49084612a58565b81548110611fe257634e487b7160e01b600052603260045260246000fd5b60009182526020822060039091020181815560018101829055600201555b8061200a81612ad6565b915050611e75565b336120256000546001600160a01b031690565b6001600160a01b03161461207b5760405162461bcd60e51b815260206004820181905260248201527f4f776e61626c653a2063616c6c6572206973206e6f7420746865206f776e657260448201526064016106bc565b6001600160a01b0381166120e05760405162461bcd60e51b815260206004820152602660248201527f4f776e61626c653a206e6577206f776e657220697320746865207a65726f206160448201526564647265737360d01b60648201526084016106bc565b600080546040516001600160a01b03808516939216917f8be0079c531659141344cd1fd0a4f28419497f9722a3daafe3b4186f6b6457e091a3600080546001600160a01b0319166001600160a01b0392909216919091179055565b828054828255906000526020600020908101928215612176579160200282015b8281111561217657825182559160200191906001019061215b565b506121829291506121f9565b5090565b82805461219290612a9b565b90600052602060002090601f0160209004810192826121b45760008555612176565b82601f106121cd57805160ff1916838001178555612176565b82800160010185558215612176579182018281111561217657825182559160200191906001019061215b565b5b8082111561218257600081556001016121fa565b600082601f83011261221e578081fd5b8135602067ffffffffffffffff82111561223a5761223a612b0c565b8082026122488282016129ff565b838152828101908684018388018501891015612262578687fd5b8693505b85841015612284578035835260019390930192918401918401612266565b50979650505050505050565b600082601f8301126122a0578081fd5b81356122b36122ae82612a30565b6129ff565b8181528460208386010111156122c7578283fd5b816020850160208301379081016020019190915292915050565b600082601f8301126122f1578081fd5b81516122ff6122ae82612a30565b818152846020838601011115612313578283fd5b612324826020830160208701612a6f565b949350505050565b60006020828403121561233d578081fd5b813561234881612b22565b9392505050565b600060208284031215612360578081fd5b815161234881612b22565b60008060006060848603121561237f578182fd5b833561238a81612b22565b9250602084013561239a81612b22565b9150604084013567ffffffffffffffff8111156123b5578182fd5b6123c18682870161220e565b9150509250925092565b600080600080608085870312156123e0578081fd5b84356123eb81612b22565b935060208501356123fb81612b22565b9250604085013567ffffffffffffffff80821115612417578283fd5b6124238883890161220e565b93506060870135915080821115612438578283fd5b5061244587828801612290565b91505092959194509250565b60008060408385031215612463578182fd5b823561246e81612b22565b946020939093013593505050565b6000806040838503121561248e578182fd5b825167ffffffffffffffff8111156124a4578283fd5b6124b0858286016122e1565b92505060208301516124c181612b22565b809150509250929050565b600080604083850312156124de578182fd5b823567ffffffffffffffff8111156124f4578283fd5b61250085828601612290565b9250506020830135600481106124c1578182fd5b600080600080600060a0868803121561252b578081fd5b855167ffffffffffffffff811115612541578182fd5b61254d888289016122e1565b9550506020860151935060408601519250606086015161256c81612b22565b608087015190925061257d81612b3a565b809150509295509295909350565b60006020828403121561259c578081fd5b5035919050565b6000602082840312156125b4578081fd5b5051919050565b600080604083850312156125cd578182fd5b8235915060208301356124c181612b22565b600080604083850312156125f1578182fd5b8235915060208301356124c181612b3a565b60008060408385031215612615578182fd5b82359150602083013567ffffffffffffffff811115612632578182fd5b61263e85828601612290565b9150509250929050565b6004811061266657634e487b7160e01b600052602160045260246000fd5b9052565b60008151808452612682816020860160208601612a6f565b601f01601f19169290920160200192915050565b600082516126a8818460208701612a6f565b9190910192915050565b81546000908190600281046001808316806126ce57607f831692505b60208084108214156126ee57634e487b7160e01b87526022600452602487fd5b81801561270257600181146127135761273f565b60ff1986168952848901965061273f565b60008a815260209020885b868110156127375781548b82015290850190830161271e565b505084890196505b509498975050505050505050565b6001600160a01b03898116825288811660208301528716604082015260608101869052841515608082015283151560a082015282151560c082015261010060e082018190526000906127a18382018561266a565b9b9a5050505050505050505050565b6000604082016040835280855480835260608501915086845260209250828420845b828110156127ee578154845292840192600191820191016127d2565b5050506001600160a01b039490941692019190915250919050565b60006128158286612648565b60606020830152612829606083018561266a565b90508215156040830152949350505050565b60208082526026908201527f4f6e6c7920746865207472616e73706f727420726563656976657220697320616040820152651b1b1bddd95960d21b606082015260800190565b6020808252604b908201527f596f75206e65656420746f20626520746865206f776e6572206f66207468652060408201527f636572746966696361746520617574686f7269747920696e206f72646572207460608201526a1bc8185cdcda59db881a5d60aa1b608082015260a00190565b60208082526024908201527f596f7520617265206e6f7420746865206f776e6572206f6620616c6c206261746040820152636368657360e01b606082015260800190565b81518152602080830151908201526040808301519082015260608101611273565b6000602080835261296b8184018551612648565b808401516080604085015261298360a085018261266a565b6040860151858203601f19016060878101919091528151808452918501935085929091908501905b808410156129e6576129d28286518051825260208082015190830152604090810151910152565b9385019360019390930192908201906129ab565b5096015115156080959095019490945250929392505050565b604051601f8201601f1916810167ffffffffffffffff81118282101715612a2857612a28612b0c565b604052919050565b600067ffffffffffffffff821115612a4a57612a4a612b0c565b50601f01601f191660200190565b600082821015612a6a57612a6a612af6565b500390565b60005b83811015612a8a578181015183820152602001612a72565b83811115611cb05750506000910152565b600281046001821680612aaf57607f821691505b60208210811415612ad057634e487b7160e01b600052602260045260246000fd5b50919050565b600060ff821660ff811415612aed57612aed612af6565b60010192915050565b634e487b7160e01b600052601160045260246000fd5b634e487b7160e01b600052604160045260246000fd5b6001600160a01b0381168114612b3757600080fd5b50565b8015158114612b3757600080fdfea26469706673582212205293742b6c34482a6a66b2ef294128ef2a00bb6a1e3993c15e43f33db0c8a77064736f6c634300080200336080604052600060055560006009553480156200001b57600080fd5b5060405162002ec638038062002ec68339810160408190526200003e91620000c2565b600180546001600160a01b038084166001600160a01b0319928316179092556000805492851692909116821781556040518492849284927f8be0079c531659141344cd1fd0a4f28419497f9722a3daafe3b4186f6b6457e0908290a35050505050620000f9565b80516001600160a01b0381168114620000bd57600080fd5b919050565b60008060408385031215620000d5578182fd5b620000e083620000a5565b9150620000f060208401620000a5565b90509250929050565b612dbd80620001096000396000f3fe6080604052600436106101c25760003560e01c8063715018a6116100f7578063b6743b4611610095578063e858ed6f11610064578063e858ed6f146104f1578063f2fde38b14610511578063f4706dcc14610531578063fc4af2ae14610573576101c2565b8063b6743b461461045f578063d1a1e68314610491578063e7f25c6e146104b1578063e812f446146104d1576101c2565b806397e4c49f116100d157806397e4c49f146103c95780639ea47a4c146103dc578063b0a79459146103fc578063b0ea57001461043f576101c2565b8063715018a61461037657806384e1d2b31461038b5780638da5cb5b146103ab576101c2565b8063245a7bfc116101645780634972134a1161013e5780634972134a146103185780634bad986c1461032e57806352e1491c14610341578063568c00d814610361576101c2565b8063245a7bfc146102b65780632ebf8464146102d457806342157a70146102f8576101c2565b80630fc45054116101a05780630fc450541461024c57806314e6047c1461026c5780631907209a146102815780631b2ef1ca14610296576101c2565b80630d25a141146101c75780630dfdfccd146101f95780630eaa75fe1461021b575b600080fd5b3480156101d357600080fd5b506101dc610593565b6040516001600160a01b0390911681526020015b60405180910390f35b34801561020557600080fd5b506102196102143660046129c1565b61061d565b005b34801561022757600080fd5b5061023b6102363660046129c1565b6106e2565b6040516101f0959493929190612b2e565b34801561025857600080fd5b5061021961026736600461270f565b6107a9565b34801561027857600080fd5b5061021961088a565b34801561028d57600080fd5b506101dc610911565b3480156102a257600080fd5b506102196102b1366004612a15565b6109ea565b3480156102c257600080fd5b506001546001600160a01b03166101dc565b3480156102e057600080fd5b506102ea60055481565b6040519081526020016101f0565b34801561030457600080fd5b50610219610313366004612a15565b610b0f565b34801561032457600080fd5b506102ea60095481565b61021961033c366004612a15565b610cfe565b34801561034d57600080fd5b506001546101dc906001600160a01b031681565b34801561036d57600080fd5b506101dc610d60565b34801561038257600080fd5b50610219610e39565b34801561039757600080fd5b506102196103a6366004612a15565b610eec565b3480156103b757600080fd5b506000546001600160a01b03166101dc565b6102196103d73660046129c1565b611124565b3480156103e857600080fd5b506102196103f736600461280e565b6112b4565b34801561040857600080fd5b506102ea6104173660046129f1565b60009182526004602090815260408084206001600160a01b0393909316845291905290205490565b34801561044b57600080fd5b5061021961045a366004612a15565b61141d565b34801561046b57600080fd5b5061047f61047a3660046129c1565b61153b565b6040516101f096959493929190612ad6565b34801561049d57600080fd5b506003546101dc906001600160a01b031681565b3480156104bd57600080fd5b506102196104cc3660046128c0565b611691565b3480156104dd57600080fd5b506102196104ec366004612a36565b611911565b3480156104fd57600080fd5b506102ea61050c3660046126e4565b611f8d565b34801561051d57600080fd5b5061021961052c3660046126ac565b611fbe565b34801561053d57600080fd5b5061055161054c366004612a15565b6120e7565b60408051825181526020808401519082015291810151908201526060016101f0565b34801561057f57600080fd5b5061021961058e3660046127a4565b61217b565b60006105a76001546001600160a01b031690565b6001600160a01b031663d365a08e6040518163ffffffff1660e01b815260040160206040518083038186803b1580156105df57600080fd5b505afa1580156105f3573d6000803e3d6000fd5b505050506040513d601f19601f8201168201806040525081019061061791906126c8565b90505b90565b6000610627610d60565b604051630c5a771d60e31b8152600481018490529091506000906001600160a01b038316906362d3b8e89060240160006040518083038186803b15801561066d57600080fd5b505afa158015610681573d6000803e3d6000fd5b505050506040513d6000823e601f3d908101601f191682016040526106a9919081019061275f565b9150506001600160a01b03811633146106dd5760405162461bcd60e51b81526004016106d490612b70565b60405180910390fd5b505050565b6008602052600090815260409020805481906106fd90612cd0565b80601f016020809104026020016040519081016040528092919081815260200182805461072990612cd0565b80156107765780601f1061074b57610100808354040283529160200191610776565b820191906000526020600020905b81548152906001019060200180831161075957829003601f168201915b5050505060018301546002840154600390940154929390929091506001600160a01b03811690600160a01b900460ff1685565b600b546001600160a01b031633146108035760405162461bcd60e51b815260206004820181905260248201527f596f7520617265206e6f742074686520636f6d70616e7920636f6e747261637460448201526064016106d4565b60005b82518160ff1610156106dd578160086000858460ff168151811061083a57634e487b7160e01b600052603260045260246000fd5b6020026020010151815260200190815260200160002060030160006101000a8154816001600160a01b0302191690836001600160a01b03160217905550808061088290612d26565b915050610806565b33610893610593565b6001600160a01b03161461090f5760405162461bcd60e51b815260206004820152603d60248201527f596f75206e65656420746f20626520746865206f776e6572206f66207468652060448201527f666163746f727920696e206f7264657220746f207265766f6b6520697400000060648201526084016106d4565b565b600b546000906001600160a01b03166109da576001546001600160a01b03166001600160a01b03166375211fd06040518163ffffffff1660e01b815260040160206040518083038186803b15801561096857600080fd5b505afa15801561097c573d6000803e3d6000fd5b505050506040513d601f19601f820116820180604052508101906109a091906126c8565b600b80546001600160a01b039283166001600160a01b03199182161791829055600a8054909116918316919091179081905516905061061a565b50600a546001600160a01b031690565b60008281526006602052604090206002015482906001600160a01b03163314610a1257600080fd5b6000838152600660208190526040909120015415610a845760405162461bcd60e51b815260206004820152602960248201527f596f75206e65656420746f2073706563696679207468652072657175697265646044820152682070726f647563747360b81b60648201526084016106d4565b60008381526006602090815260408083206002015460048352818420338552909252822080546001600160a01b03909216928592610ac3908490612c5e565b90915550506040518381526001600160a01b038216906000907fd2a30056f93efc3f8e492bac0806e5de7853e52ada2260b229015ce5a93c20449060200160405180910390a350505050565b610b188261061d565b600081815260066020526040812060030154905b818160ff161015610c9b576000838152600660205260409020600301805485919060ff8416908110610b6e57634e487b7160e01b600052603260045260246000fd5b9060005260206000209060030201600001541415610c89576000838152600660205260409020600301610ba2600184612c76565b81548110610bc057634e487b7160e01b600052603260045260246000fd5b9060005260206000209060030201600660008581526020019081526020016000206003018260ff1681548110610c0657634e487b7160e01b600052603260045260246000fd5b60009182526020808320845460039384029091019081556001808601548183015560029586015495909101949094558683526006905260409091200190610c4d9084612c76565b81548110610c6b57634e487b7160e01b600052603260045260246000fd5b60009182526020822060039091020181815560018101829055600201555b80610c9381612d26565b915050610b2c565b610ca6600183612c76565b8160ff161415610cf85760405162461bcd60e51b815260206004820152601a60248201527f436572746966696361746520636f6465206e6f7420666f756e6400000000000060448201526064016106d4565b50505050565b610d0782611124565b604080516060810182529283524260208085019182523485840190815260009485526006825292842060039081018054600181810183559187529290952095519102909401938455519183019190915551600290910155565b6003546000906001600160a01b0316610e29576001546001600160a01b03166001600160a01b0316634d14688e6040518163ffffffff1660e01b815260040160206040518083038186803b158015610db757600080fd5b505afa158015610dcb573d6000803e3d6000fd5b505050506040513d601f19601f82011682018060405250810190610def91906126c8565b600380546001600160a01b039283166001600160a01b0319918216179182905560028054909116918316919091179081905516905061061a565b506002546001600160a01b031690565b33610e4c6000546001600160a01b031690565b6001600160a01b031614610ea25760405162461bcd60e51b815260206004820181905260248201527f4f776e61626c653a2063616c6c6572206973206e6f7420746865206f776e657260448201526064016106d4565b600080546040516001600160a01b03909116907f8be0079c531659141344cd1fd0a4f28419497f9722a3daafe3b4186f6b6457e0908390a3600080546001600160a01b0319169055565b610ef461088a565b600081815260066020526040812060030154905b818160ff161015610c9b576000838152600660205260409020600301805485919060ff8416908110610f4a57634e487b7160e01b600052603260045260246000fd5b9060005260206000209060030201600001541415611112576000838152600660205260409020600301610f7e600184612c76565b81548110610f9c57634e487b7160e01b600052603260045260246000fd5b9060005260206000209060030201600660008581526020019081526020016000206003018260ff1681548110610fe257634e487b7160e01b600052603260045260246000fd5b60009182526020808320845460039384029091019081556001808601548183015560029586015495909101949094558154878452600690915260409092207fedf88b84b7fc468541cdda2e62965ca57617a4008817a003550ebbfa1546f4e7936001600160a01b039093169291019061105b9086612c76565b8154811061107957634e487b7160e01b600052603260045260246000fd5b600091825260209182902060026003909202010154604080516001600160a01b0390941684529183015247908201526001606082015260800160405180910390a160008381526006602052604090206003016110d6600184612c76565b815481106110f457634e487b7160e01b600052603260045260246000fd5b60009182526020822060039091020181815560018101829055600201555b8061111c81612d26565b915050610f08565b600061112e610d60565b604051630c5a771d60e31b8152600481018490529091506000906001600160a01b038316906362d3b8e89060240160006040518083038186803b15801561117457600080fd5b505afa158015611188573d6000803e3d6000fd5b505050506040513d6000823e601f3d908101601f191682016040526111b0919081019061275f565b9150506001600160a01b03811633146111db5760405162461bcd60e51b81526004016106d490612b70565b816001600160a01b031663ec5ffac26040518163ffffffff1660e01b815260040160206040518083038186803b15801561121457600080fd5b505afa158015611228573d6000803e3d6000fd5b505050506040513d601f19601f8201168201806040525081019061124c91906129d9565b3410156106dd5760405162461bcd60e51b815260206004820152603060248201527f5265636569766564207061796d656e74206973206c6f7765722074686174207460448201526f6865206d696e696d756d207374616b6560801b60648201526084016106d4565b6112bc610911565b60405163315e2b7360e11b81523360048201526001600160a01b0391909116906362bc56e69060240160006040518083038186803b1580156112fd57600080fd5b505afa158015611311573d6000803e3d6000fd5b505050506040513d6000823e601f3d908101601f19168201604052611339919081019061290c565b6060015115156001146113685760405162461bcd60e51b815260206004820152600060248201526044016106d4565b80518251146113b95760405162461bcd60e51b815260206004820152601e60248201527f417272617973206d757374206265207468652073616d65206c656e677468000060448201526064016106d4565b600554600090815260066020818152604090922084516113e193919092019190850190612322565b506005546000908152600660209081526040909120825161140a92600790920191840190612322565b5061141685858561217b565b5050505050565b6000811161146d5760405162461bcd60e51b815260206004820181905260248201527f416d6f756e74206e6565647320746f20626520626967676572207468616e203060448201526064016106d4565b6000828152600860205260409020600201548111156114c55760405162461bcd60e51b8152602060048201526014602482015273416d6f756e74206e6f7420617661696c61626c6560601b60448201526064016106d4565b600082815260086020526040812060020180548392906114e6908490612c76565b90915550506000829052600860205260095460405160009033907fe33fa6b1dc0e64c45482249b300e8b7a8c335905802467c723315913c6ff39119061152f9086815260200190565b60405180910390a45050565b60066020526000908152604090208054819061155690612cd0565b80601f016020809104026020016040519081016040528092919081815260200182805461158290612cd0565b80156115cf5780601f106115a4576101008083540402835291602001916115cf565b820191906000526020600020905b8154815290600101906020018083116115b257829003601f168201915b505050600184015460028501546004860154600887018054969793966001600160a01b0390931695509093509061160590612cd0565b80601f016020809104026020016040519081016040528092919081815260200182805461163190612cd0565b801561167e5780601f106116535761010080835404028352916020019161167e565b820191906000526020600020905b81548152906001019060200180831161166157829003601f168201915b5050506009909301549192505060ff1686565b611699610911565b60405163315e2b7360e11b81523360048201526001600160a01b0391909116906362bc56e69060240160006040518083038186803b1580156116da57600080fd5b505afa1580156116ee573d6000803e3d6000fd5b505050506040513d6000823e601f3d908101601f19168201604052611716919081019061290c565b6060015115156001146117455760405162461bcd60e51b815260206004820152600060248201526044016106d4565b60008281526004602090815260408083203384529091529020548111156117cc5760405162461bcd60e51b815260206004820152603560248201527f596f7520646f206e6f74206861766520656e6f756768206d6174657269616c73604482015274040e8de40c6e4cac2e8ca40e8d0d2e640c4c2e8c6d605b1b60648201526084016106d4565b6000828152600460209081526040808320338452909152812080548392906117f5908490612c76565b90915550506040805160a081018252848152602080820185905281830184905233606083015260016080830152600954600090815260088252929092208151805192938493611847928492019061236d565b5060208281015160018084019190915560408085015160028501556060850151600390940180546080909601511515600160a01b0260ff60a01b196001600160a01b039096166001600160a01b0319909716969096179490941694909417909255336000818152600783528481206009805482549687018355918352938220909401939093559054925190917f9cfea37e5f90ae77105574d017eb1153f6aed45ec586cc5def2a01311c7b1aa791a36009805490600061190683612d0b565b919050555050505050565b60008481526006602052604090206002015484906001600160a01b0316331461193957600080fd5b815183511461198a5760405162461bcd60e51b815260206004820152601e60248201527f417272617973206d757374206265207468652073616d65206c656e677468000060448201526064016106d4565b60008581526006602081905260409091200154611a005760405162461bcd60e51b815260206004820152602e60248201527f54686520746f6b656e20646f6573206e6f74206e656564206164646974696f6e60448201526d616c20696e6772656469656e747360901b60648201526084016106d4565b8251600086815260066020819052604090912001541115611a635760405162461bcd60e51b815260206004820152601f60248201527f4e6f7420656e6f75676820696e6772656469656e74732070726f76696465640060448201526064016106d4565b6000858152600660205260408120600201546001600160a01b0316905b858160ff161015611f1557600087815260066020908152604080832060070180548251818502810185019093528083529192909190830182828015611ae457602002820191906000526020600020905b815481526020019060010190808311611ad0575b505083519394506000925050505b60008a8152600660208190526040909120015460ff82161015611ea65760005b88518160ff161015611e9357878160ff1681518110611b4157634e487b7160e01b600052603260045260246000fd5b6020026020010151600860008b8460ff1681518110611b7057634e487b7160e01b600052603260045260246000fd5b60200260200101518152602001908152602001600020600201541015611be35760405162461bcd60e51b815260206004820152602260248201527f496e76616c696420626174636820616d6f756e7420737065636966696361746960448201526137b760f11b60648201526084016106d4565b60008b815260066020819052604090912001805460ff8416908110611c1857634e487b7160e01b600052603260045260246000fd5b9060005260206000200154600860008b8460ff1681518110611c4a57634e487b7160e01b600052603260045260246000fd5b6020026020010151815260200190815260200160002060010154148015611c9c5750838260ff1681518110611c8f57634e487b7160e01b600052603260045260246000fd5b6020026020010151600014155b8015611cd35750878160ff1681518110611cc657634e487b7160e01b600052603260045260246000fd5b6020026020010151600014155b8015611d1f57506000600860008b8460ff1681518110611d0357634e487b7160e01b600052603260045260246000fd5b6020026020010151815260200190815260200160002060020154115b15611e81576000611d8d898360ff1681518110611d4c57634e487b7160e01b600052603260045260246000fd5b6020026020010151868560ff1681518110611d7757634e487b7160e01b600052603260045260246000fd5b602002602001015161230a90919063ffffffff16565b9050611dc38a8360ff1681518110611db557634e487b7160e01b600052603260045260246000fd5b60200260200101518261141d565b80898360ff1681518110611de757634e487b7160e01b600052603260045260246000fd5b60200260200101818151611dfb9190612c76565b90525084518190869060ff8616908110611e2557634e487b7160e01b600052603260045260246000fd5b60200260200101818151611e399190612c76565b9052508451859060ff8516908110611e6157634e487b7160e01b600052603260045260246000fd5b602002602001015160001415611e7f5783611e7b81612cb9565b9450505b505b80611e8b81612d26565b915050611b12565b5080611e9e81612d26565b915050611af2565b508015611f005760405162461bcd60e51b815260206004820152602260248201527f436f756c64206e6f74207361746973667920616c6c20726571756972656d656e604482015261747360f01b60648201526084016106d4565b50508080611f0d90612d26565b915050611a80565b50600086815260046020908152604080832033845290915281208054879290611f3f908490612c5e565b90915550506040518581526001600160a01b038216906000907fd2a30056f93efc3f8e492bac0806e5de7853e52ada2260b229015ce5a93c20449060200160405180910390a3505050505050565b60076020528160005260406000208181548110611fa957600080fd5b90600052602060002001600091509150505481565b33611fd16000546001600160a01b031690565b6001600160a01b0316146120275760405162461bcd60e51b815260206004820181905260248201527f4f776e61626c653a2063616c6c6572206973206e6f7420746865206f776e657260448201526064016106d4565b6001600160a01b03811661208c5760405162461bcd60e51b815260206004820152602660248201527f4f776e61626c653a206e6577206f776e657220697320746865207a65726f206160448201526564647265737360d01b60648201526084016106d4565b600080546040516001600160a01b03808516939216917f8be0079c531659141344cd1fd0a4f28419497f9722a3daafe3b4186f6b6457e091a3600080546001600160a01b0319166001600160a01b0392909216919091179055565b61210b60405180606001604052806000815260200160008152602001600081525090565b600083815260066020526040902060030180548390811061213c57634e487b7160e01b600052603260045260246000fd5b90600052602060002090600302016040518060600160405290816000820154815260200160018201548152602001600282015481525050905092915050565b612183610911565b60405163315e2b7360e11b81523360048201526001600160a01b0391909116906362bc56e69060240160006040518083038186803b1580156121c457600080fd5b505afa1580156121d8573d6000803e3d6000fd5b505050506040513d6000823e601f3d908101601f19168201604052612200919081019061290c565b60600151151560011461222f5760405162461bcd60e51b815260206004820152600060248201526044016106d4565b600554600090815260066020908152604090912084516122519286019061236d565b506005805460009081526006602090815260408083206001018690558354835290912083516122879391909101918401906123e0565b506005805460009081526006602052604080822060020180546001600160a01b0319163390811790915583548352818320600901805460ff19166001179055925490519092917f6a997f5336d49ad9e39f0c2ca482abf14aafd464ca9930266c4c1567367167c591a36005805490600061230083612d0b565b9190505550505050565b6000818310612319578161231b565b825b9392505050565b82805482825590600052602060002090810192821561235d579160200282015b8281111561235d578251825591602001919060010190612342565b50612369929150612439565b5090565b82805461237990612cd0565b90600052602060002090601f01602090048101928261239b576000855561235d565b82601f106123b457805160ff191683800117855561235d565b8280016001018555821561235d579182018281111561235d578251825591602001919060010190612342565b82805482825590600052602060002090810192821561242d579160200282015b8281111561242d578251805161241d91849160209091019061236d565b5091602001919060010190612400565b5061236992915061244e565b5b80821115612369576000815560010161243a565b80821115612369576000612462828261246b565b5060010161244e565b50805461247790612cd0565b6000825580601f1061248957506124a7565b601f0160209004906000526020600020908101906124a79190612439565b50565b600082601f8301126124ba578081fd5b813560206124cf6124ca83612c12565b612be1565b82815281810190858301855b85811015612504576124f2898684358b0101612615565b845292840192908401906001016124db565b5090979650505050505050565b600082601f830112612521578081fd5b815160206125316124ca83612c12565b8281528181019085830160608086028801850189101561254f578687fd5b865b868110156125985781838b031215612567578788fd5b61257082612be1565b8351815286840151878201526040808501519082015285529385019391810191600101612551565b509198975050505050505050565b600082601f8301126125b6578081fd5b813560206125c66124ca83612c12565b82815281810190858301838502870184018810156125e2578586fd5b855b85811015612504578135845292840192908401906001016125e4565b8051801515811461261057600080fd5b919050565b600082601f830112612625578081fd5b81356126336124ca82612c36565b818152846020838601011115612647578283fd5b816020850160208301379081016020019190915292915050565b600082601f830112612671578081fd5b815161267f6124ca82612c36565b818152846020838601011115612693578283fd5b6126a4826020830160208701612c8d565b949350505050565b6000602082840312156126bd578081fd5b813561231b81612d72565b6000602082840312156126d9578081fd5b815161231b81612d72565b600080604083850312156126f6578081fd5b823561270181612d72565b946020939093013593505050565b60008060408385031215612721578182fd5b823567ffffffffffffffff811115612737578283fd5b612743858286016125a6565b925050602083013561275481612d72565b809150509250929050565b60008060408385031215612771578182fd5b825167ffffffffffffffff811115612787578283fd5b61279385828601612661565b925050602083015161275481612d72565b6000806000606084860312156127b8578081fd5b833567ffffffffffffffff808211156127cf578283fd5b6127db87838801612615565b94506020860135935060408601359150808211156127f7578283fd5b50612804868287016124aa565b9150509250925092565b600080600080600060a08688031215612825578283fd5b853567ffffffffffffffff8082111561283c578485fd5b61284889838a01612615565b9650602088013595506040880135915080821115612864578485fd5b61287089838a016124aa565b94506060880135915080821115612885578283fd5b61289189838a016125a6565b935060808801359150808211156128a6578283fd5b506128b3888289016125a6565b9150509295509295909350565b6000806000606084860312156128d4578081fd5b833567ffffffffffffffff8111156128ea578182fd5b6128f686828701612615565b9660208601359650604090950135949350505050565b60006020828403121561291d578081fd5b815167ffffffffffffffff80821115612934578283fd5b9083019060808286031215612947578283fd5b6129516080612be1565b82516004811061295f578485fd5b8152602083015182811115612972578485fd5b61297e87828601612661565b602083015250604083015182811115612995578485fd5b6129a187828601612511565b6040830152506129b360608401612600565b606082015295945050505050565b6000602082840312156129d2578081fd5b5035919050565b6000602082840312156129ea578081fd5b5051919050565b60008060408385031215612a03578182fd5b82359150602083013561275481612d72565b60008060408385031215612a27578182fd5b50508035926020909101359150565b60008060008060808587031215612a4b578182fd5b8435935060208501359250604085013567ffffffffffffffff80821115612a70578384fd5b612a7c888389016125a6565b93506060870135915080821115612a91578283fd5b50612a9e878288016125a6565b91505092959194509250565b60008151808452612ac2816020860160208601612c8d565b601f01601f19169290920160200192915050565b600060c08252612ae960c0830189612aaa565b602083018890526001600160a01b0387166040840152606083018690528281036080840152612b188186612aaa565b91505082151560a0830152979650505050505050565b600060a08252612b4160a0830188612aaa565b60208301969096525060408101939093526001600160a01b039190911660608301521515608090910152919050565b6020808252604b908201527f596f75206e65656420746f20626520746865206f776e6572206f66207468652060408201527f636572746966696361746520617574686f7269747920696e206f72646572207460608201526a1bc8185cdcda59db881a5d60aa1b608082015260a00190565b604051601f8201601f1916810167ffffffffffffffff81118282101715612c0a57612c0a612d5c565b604052919050565b600067ffffffffffffffff821115612c2c57612c2c612d5c565b5060209081020190565b600067ffffffffffffffff821115612c5057612c50612d5c565b50601f01601f191660200190565b60008219821115612c7157612c71612d46565b500190565b600082821015612c8857612c88612d46565b500390565b60005b83811015612ca8578181015183820152602001612c90565b83811115610cf85750506000910152565b600081612cc857612cc8612d46565b506000190190565b600281046001821680612ce457607f821691505b60208210811415612d0557634e487b7160e01b600052602260045260246000fd5b50919050565b6000600019821415612d1f57612d1f612d46565b5060010190565b600060ff821660ff811415612d3d57612d3d612d46565b60010192915050565b634e487b7160e01b600052601160045260246000fd5b634e487b7160e01b600052604160045260246000fd5b6001600160a01b03811681146124a757600080fdfea264697066735822122088faa760050a9ccb31d72a4bae387236e943b30967f91815952bcd448bad8bd564736f6c634300080200336080604052670de0b6b3a764000060045534801561001c57600080fd5b5060405161082d38038061082d83398101604081905261003b9161005e565b5050610090565b80516001600160a01b038116811461005957600080fd5b919050565b60008060408385031215610070578182fd5b61007983610042565b915061008760208401610042565b90509250929050565b61078e8061009f6000396000f3fe608060405234801561001057600080fd5b506004361061007d5760003560e01c806398213dfd1161005b57806398213dfd146100de578063c5e3dad314610100578063c9e6a7c214610113578063ec5ffac2146101265761007d565b8063233e9903146100825780632ec919a61461009757806362d3b8e8146100bd575b600080fd5b610095610090366004610650565b600455565b005b6100aa6100a5366004610650565b61012f565b6040519081526020015b60405180910390f35b6100d06100cb366004610650565b610150565b6040516100b49291906106b3565b6100f16100ec3660046105a4565b6101fd565b6040516100b4939291906106dd565b61009561010e3660046105d2565b6102ad565b61009561012136600461060d565b610355565b6100aa60045481565b6001818154811061013f57600080fd5b600091825260209091200154905081565b60006020819052908152604090208054819061016b90610707565b80601f016020809104026020016040519081016040528092919081815260200182805461019790610707565b80156101e45780601f106101b9576101008083540402835291602001916101e4565b820191906000526020600020905b8154815290600101906020018083116101c757829003601f168201915b505050600190930154919250506001600160a01b031682565b60026020526000908152604090208054819061021890610707565b80601f016020809104026020016040519081016040528092919081815260200182805461024490610707565b80156102915780601f1061026657610100808354040283529160200191610291565b820191906000526020600020905b81548152906001019060200180831161027457829003601f168201915b5050506001909301549192505060ff8082169161010090041683565b60038054600181019091557fc2575a0e9e593c00f959f8c92f12db2869c3395a3b0502d05e2516446f71f85b0180546001600160a01b031916339081179091556000908152600260209081526040909120825161030c92840190610484565b5033600081815260026020526040808220600101805461ff001916610100179055517fe8c9b46f5348d749cb15476293b1686475f06347a6fba68b333b4aeb5c1305d39190a250565b6000818152602081905260409020600101546001600160a01b0316156103e75760405162461bcd60e51b815260206004820152603a60248201527f5468697320636572746966696361746520616c7265616479206578697374732e60448201527f20596f752063616e206e6f74206f766572726964652074686973000000000000606482015260840160405180910390fd5b600180548082019091557fb10e2d527612073b26eecdfd717e6a320cf44b4afac2b0732d9fcbe2b7fa0cf601819055600081815260208181526040909120835161043392850190610484565b5060008181526020819052604080822060010180546001600160a01b03191633908117909155905183927ff0fdccb7f2a9d4420770a9328560943258d5ee5af327bd1304208a82dec0bdf191a35050565b82805461049090610707565b90600052602060002090601f0160209004810192826104b257600085556104f8565b82601f106104cb57805160ff19168380011785556104f8565b828001600101855582156104f8579182015b828111156104f85782518255916020019190600101906104dd565b50610504929150610508565b5090565b5b808211156105045760008155600101610509565b600082601f83011261052d578081fd5b813567ffffffffffffffff8082111561054857610548610742565b604051601f8301601f19908116603f0116810190828211818310171561057057610570610742565b81604052838152866020858801011115610588578485fd5b8360208701602083013792830160200193909352509392505050565b6000602082840312156105b5578081fd5b81356001600160a01b03811681146105cb578182fd5b9392505050565b6000602082840312156105e3578081fd5b813567ffffffffffffffff8111156105f9578182fd5b6106058482850161051d565b949350505050565b6000806040838503121561061f578081fd5b823567ffffffffffffffff811115610635578182fd5b6106418582860161051d565b95602094909401359450505050565b600060208284031215610661578081fd5b5035919050565b60008151808452815b8181101561068d57602081850181015186830182015201610671565b8181111561069e5782602083870101525b50601f01601f19169290920160200192915050565b6000604082526106c66040830185610668565b905060018060a01b03831660208301529392505050565b6000606082526106f06060830186610668565b931515602083015250901515604090910152919050565b60028104600182168061071b57607f821691505b6020821081141561073c57634e487b7160e01b600052602260045260246000fd5b50919050565b634e487b7160e01b600052604160045260246000fdfea264697066735822122018e7d90e609d37df3b448b2a7b421dc1ee3d71ca5408cccc42e5994fde2b3da364736f6c63430008020033",
  "immutableReferences": {},
  "source": "// SPDX-License-Identifier: MIT\npragma solidity >0.7.0 <0.9.0;\n\nimport './Aggregator.sol';\nimport './Material.sol';\nimport './Company.sol';\nimport './CertificateAuthorityManager.sol';\n\ncontract Factory {\n    address public aggregator;\n    address public masterAddress;\n\n    constructor() {\n        masterAddress = msg.sender;\n        Aggregator aggregatorContract = new Aggregator();\n        aggregator = address(aggregatorContract);\n\n        Company company = new Company(masterAddress, aggregator);\n        address companyContractAddress = address(company);\n        Material materialContract = new Material(masterAddress, aggregator);\n        address materialContractAddress = address(materialContract);\n        CertificateAuthorityManager certificateAuthorityManager =\n            new CertificateAuthorityManager(masterAddress, aggregator);\n        address certificateAuthorityManagerContractAddress = address(certificateAuthorityManager);\n\n        aggregatorContract.setContracts(\n            masterAddress,\n            companyContractAddress,\n            materialContractAddress,\n            certificateAuthorityManagerContractAddress\n        );\n    }\n}\n",
  "sourcePath": "/home/alex/Desktop/proofchain/truffle/contracts/Factory.sol",
  "compiler": {
    "name": "solc",
    "version": "0.8.2+commit.661d1103.Emscripten.clang"
  },
  "schemaVersion": "3.3.4",
  "updatedAt": "2021-03-09T12:23:37.663Z",
  "devdoc": {
    "kind": "dev",
    "methods": {},
    "version": 1
  },
  "userdoc": {
    "kind": "user",
    "methods": {},
    "version": 1
  }
}