{
  "contractName": "Material",
  "abi": [
    {
      "inputs": [
        {
          "internalType": "address",
          "name": "_masterAddress",
          "type": "address"
        },
        {
          "internalType": "address",
          "name": "_factoryContractAddress",
          "type": "address"
        }
      ],
      "stateMutability": "nonpayable",
      "type": "constructor"
    },
    {
      "anonymous": false,
      "inputs": [
        {
          "indexed": true,
          "internalType": "address",
          "name": "company",
          "type": "address"
        },
        {
          "indexed": true,
          "internalType": "uint256",
          "name": "batchId",
          "type": "uint256"
        }
      ],
      "name": "BatchCreate",
      "type": "event"
    },
    {
      "anonymous": false,
      "inputs": [
        {
          "indexed": true,
          "internalType": "address",
          "name": "from",
          "type": "address"
        },
        {
          "indexed": true,
          "internalType": "address",
          "name": "to",
          "type": "address"
        },
        {
          "indexed": true,
          "internalType": "uint256",
          "name": "batchId",
          "type": "uint256"
        },
        {
          "indexed": false,
          "internalType": "uint256",
          "name": "amount",
          "type": "uint256"
        }
      ],
      "name": "BatchTransfer",
      "type": "event"
    },
    {
      "anonymous": false,
      "inputs": [
        {
          "indexed": true,
          "internalType": "address",
          "name": "company",
          "type": "address"
        },
        {
          "indexed": true,
          "internalType": "uint256",
          "name": "materialTokenId",
          "type": "uint256"
        }
      ],
      "name": "MaterialCreate",
      "type": "event"
    },
    {
      "anonymous": false,
      "inputs": [
        {
          "indexed": true,
          "internalType": "address",
          "name": "from",
          "type": "address"
        },
        {
          "indexed": true,
          "internalType": "address",
          "name": "to",
          "type": "address"
        },
        {
          "indexed": false,
          "internalType": "uint256",
          "name": "value",
          "type": "uint256"
        }
      ],
      "name": "MaterialTransfer",
      "type": "event"
    },
    {
      "anonymous": false,
      "inputs": [
        {
          "indexed": true,
          "internalType": "address",
          "name": "previousOwner",
          "type": "address"
        },
        {
          "indexed": true,
          "internalType": "address",
          "name": "newOwner",
          "type": "address"
        }
      ],
      "name": "OwnershipTransferred",
      "type": "event"
    },
    {
      "anonymous": false,
      "inputs": [
        {
          "indexed": false,
          "internalType": "address",
          "name": "data1",
          "type": "address"
        },
        {
          "indexed": false,
          "internalType": "uint256",
          "name": "data2",
          "type": "uint256"
        },
        {
          "indexed": false,
          "internalType": "uint256",
          "name": "data3",
          "type": "uint256"
        },
        {
          "indexed": false,
          "internalType": "bool",
          "name": "data4",
          "type": "bool"
        }
      ],
      "name": "T",
      "type": "event"
    },
    {
      "inputs": [],
      "name": "_aggregator",
      "outputs": [
        {
          "internalType": "address",
          "name": "",
          "type": "address"
        }
      ],
      "stateMutability": "view",
      "type": "function"
    },
    {
      "inputs": [
        {
          "internalType": "address",
          "name": "",
          "type": "address"
        },
        {
          "internalType": "uint256",
          "name": "",
          "type": "uint256"
        }
      ],
      "name": "addressBatches",
      "outputs": [
        {
          "internalType": "uint256",
          "name": "",
          "type": "uint256"
        }
      ],
      "stateMutability": "view",
      "type": "function"
    },
    {
      "inputs": [],
      "name": "aggregator",
      "outputs": [
        {
          "internalType": "address",
          "name": "",
          "type": "address"
        }
      ],
      "stateMutability": "view",
      "type": "function"
    },
    {
      "inputs": [
        {
          "internalType": "uint256",
          "name": "",
          "type": "uint256"
        }
      ],
      "name": "batch",
      "outputs": [
        {
          "internalType": "string",
          "name": "code",
          "type": "string"
        },
        {
          "internalType": "uint256",
          "name": "materialTokenId",
          "type": "uint256"
        },
        {
          "internalType": "uint256",
          "name": "materialTokenAmount",
          "type": "uint256"
        },
        {
          "internalType": "address",
          "name": "owner",
          "type": "address"
        },
        {
          "internalType": "bool",
          "name": "isValue",
          "type": "bool"
        }
      ],
      "stateMutability": "view",
      "type": "function"
    },
    {
      "inputs": [],
      "name": "batchId",
      "outputs": [
        {
          "internalType": "uint256",
          "name": "",
          "type": "uint256"
        }
      ],
      "stateMutability": "view",
      "type": "function"
    },
    {
      "inputs": [],
      "name": "certificateAuthorityManagerAddress",
      "outputs": [
        {
          "internalType": "address",
          "name": "",
          "type": "address"
        }
      ],
      "stateMutability": "view",
      "type": "function"
    },
    {
      "inputs": [
        {
          "internalType": "uint256",
          "name": "_tokenID",
          "type": "uint256"
        },
        {
          "internalType": "address",
          "name": "_address",
          "type": "address"
        }
      ],
      "name": "getBalance",
      "outputs": [
        {
          "internalType": "uint256",
          "name": "",
          "type": "uint256"
        }
      ],
      "stateMutability": "view",
      "type": "function"
    },
    {
      "inputs": [],
      "name": "getCertificateAuthorityManagerContract",
      "outputs": [
        {
          "internalType": "contract CertificateAuthorityManager",
          "name": "",
          "type": "address"
        }
      ],
      "stateMutability": "nonpayable",
      "type": "function"
    },
    {
      "inputs": [],
      "name": "getCompanyContract",
      "outputs": [
        {
          "internalType": "contract Company",
          "name": "",
          "type": "address"
        }
      ],
      "stateMutability": "nonpayable",
      "type": "function"
    },
    {
      "inputs": [],
      "name": "getMasterAddress",
      "outputs": [
        {
          "internalType": "address",
          "name": "",
          "type": "address"
        }
      ],
      "stateMutability": "view",
      "type": "function"
    },
    {
      "inputs": [
        {
          "internalType": "uint256",
          "name": "_materialTokenId",
          "type": "uint256"
        },
        {
          "internalType": "uint256",
          "name": "_index",
          "type": "uint256"
        }
      ],
      "name": "getMaterialCertificate",
      "outputs": [
        {
          "components": [
            {
              "internalType": "uint256",
              "name": "code",
              "type": "uint256"
            },
            {
              "internalType": "uint256",
              "name": "time",
              "type": "uint256"
            },
            {
              "internalType": "uint256",
              "name": "stake",
              "type": "uint256"
            }
          ],
          "internalType": "struct MaterialBase.CertificateInstance",
          "name": "",
          "type": "tuple"
        }
      ],
      "stateMutability": "view",
      "type": "function"
    },
    {
      "inputs": [
        {
          "internalType": "uint256",
          "name": "",
          "type": "uint256"
        }
      ],
      "name": "materialToken",
      "outputs": [
        {
          "internalType": "string",
          "name": "title",
          "type": "string"
        },
        {
          "internalType": "uint256",
          "name": "code",
          "type": "uint256"
        },
        {
          "internalType": "address",
          "name": "creator",
          "type": "address"
        },
        {
          "internalType": "uint256",
          "name": "certificatesLength",
          "type": "uint256"
        },
        {
          "internalType": "string",
          "name": "amountIdentifier",
          "type": "string"
        },
        {
          "internalType": "bool",
          "name": "isValue",
          "type": "bool"
        }
      ],
      "stateMutability": "view",
      "type": "function"
    },
    {
      "inputs": [],
      "name": "materialTokenId",
      "outputs": [
        {
          "internalType": "uint256",
          "name": "",
          "type": "uint256"
        }
      ],
      "stateMutability": "view",
      "type": "function"
    },
    {
      "inputs": [],
      "name": "owner",
      "outputs": [
        {
          "internalType": "address",
          "name": "",
          "type": "address"
        }
      ],
      "stateMutability": "view",
      "type": "function"
    },
    {
      "inputs": [],
      "name": "renounceOwnership",
      "outputs": [],
      "stateMutability": "nonpayable",
      "type": "function"
    },
    {
      "inputs": [
        {
          "internalType": "address",
          "name": "newOwner",
          "type": "address"
        }
      ],
      "name": "transferOwnership",
      "outputs": [],
      "stateMutability": "nonpayable",
      "type": "function"
    },
    {
      "inputs": [
        {
          "internalType": "string",
          "name": "_title",
          "type": "string"
        },
        {
          "internalType": "uint256",
          "name": "_code",
          "type": "uint256"
        },
        {
          "internalType": "string[]",
          "name": "_images",
          "type": "string[]"
        },
        {
          "internalType": "uint256[]",
          "name": "_recipematerialTokenId",
          "type": "uint256[]"
        },
        {
          "internalType": "uint256[]",
          "name": "_recipeMaterialAmount",
          "type": "uint256[]"
        }
      ],
      "name": "create",
      "outputs": [],
      "stateMutability": "nonpayable",
      "type": "function"
    },
    {
      "inputs": [
        {
          "internalType": "string",
          "name": "_title",
          "type": "string"
        },
        {
          "internalType": "uint256",
          "name": "_code",
          "type": "uint256"
        },
        {
          "internalType": "string[]",
          "name": "_images",
          "type": "string[]"
        }
      ],
      "name": "create",
      "outputs": [],
      "stateMutability": "nonpayable",
      "type": "function"
    },
    {
      "inputs": [
        {
          "internalType": "uint256",
          "name": "_tokenID",
          "type": "uint256"
        },
        {
          "internalType": "uint256",
          "name": "_amount",
          "type": "uint256"
        },
        {
          "internalType": "uint256[]",
          "name": "_batchesId",
          "type": "uint256[]"
        },
        {
          "internalType": "uint256[]",
          "name": "_batchesAmount",
          "type": "uint256[]"
        }
      ],
      "name": "mint",
      "outputs": [],
      "stateMutability": "nonpayable",
      "type": "function"
    },
    {
      "inputs": [
        {
          "internalType": "uint256",
          "name": "_tokenID",
          "type": "uint256"
        },
        {
          "internalType": "uint256",
          "name": "_amount",
          "type": "uint256"
        }
      ],
      "name": "mint",
      "outputs": [],
      "stateMutability": "nonpayable",
      "type": "function"
    },
    {
      "inputs": [
        {
          "internalType": "string",
          "name": "_code",
          "type": "string"
        },
        {
          "internalType": "uint256",
          "name": "_tokenID",
          "type": "uint256"
        },
        {
          "internalType": "uint256",
          "name": "_amount",
          "type": "uint256"
        }
      ],
      "name": "createBatch",
      "outputs": [],
      "stateMutability": "nonpayable",
      "type": "function"
    },
    {
      "inputs": [
        {
          "internalType": "uint256",
          "name": "_batchId",
          "type": "uint256"
        },
        {
          "internalType": "uint256",
          "name": "_amount",
          "type": "uint256"
        }
      ],
      "name": "burnBatchToken",
      "outputs": [],
      "stateMutability": "nonpayable",
      "type": "function"
    },
    {
      "inputs": [
        {
          "internalType": "uint256",
          "name": "_certificateCode",
          "type": "uint256"
        }
      ],
      "name": "assignCertificate",
      "outputs": [],
      "stateMutability": "payable",
      "type": "function"
    },
    {
      "inputs": [
        {
          "internalType": "uint256",
          "name": "_certificateCode",
          "type": "uint256"
        },
        {
          "internalType": "uint256",
          "name": "_itemIdentifier",
          "type": "uint256"
        }
      ],
      "name": "assignCertificate",
      "outputs": [],
      "stateMutability": "payable",
      "type": "function"
    },
    {
      "inputs": [
        {
          "internalType": "uint256",
          "name": "_certificateCode",
          "type": "uint256"
        },
        {
          "internalType": "uint256",
          "name": "_itemIdentifier",
          "type": "uint256"
        }
      ],
      "name": "cancelCertificate",
      "outputs": [],
      "stateMutability": "nonpayable",
      "type": "function"
    },
    {
      "inputs": [
        {
          "internalType": "uint256",
          "name": "_certificateCode",
          "type": "uint256"
        }
      ],
      "name": "cancelCertificate",
      "outputs": [],
      "stateMutability": "nonpayable",
      "type": "function"
    },
    {
      "inputs": [],
      "name": "revokeCertificate",
      "outputs": [],
      "stateMutability": "view",
      "type": "function"
    },
    {
      "inputs": [
        {
          "internalType": "uint256",
          "name": "_certificateCode",
          "type": "uint256"
        },
        {
          "internalType": "uint256",
          "name": "_itemIdentifier",
          "type": "uint256"
        }
      ],
      "name": "revokeCertificate",
      "outputs": [],
      "stateMutability": "nonpayable",
      "type": "function"
    },
    {
      "inputs": [
        {
          "internalType": "uint256[]",
          "name": "_batchIds",
          "type": "uint256[]"
        },
        {
          "internalType": "address",
          "name": "_newOwner",
          "type": "address"
        }
      ],
      "name": "changeBatchOwnershipBatch",
      "outputs": [],
      "stateMutability": "nonpayable",
      "type": "function"
    }
  ],
  "bytecode": "0x6080604052600060055560006009553480156200001b57600080fd5b5060405162002ec638038062002ec68339810160408190526200003e91620000c2565b600180546001600160a01b038084166001600160a01b0319928316179092556000805492851692909116821781556040518492849284927f8be0079c531659141344cd1fd0a4f28419497f9722a3daafe3b4186f6b6457e0908290a35050505050620000f9565b80516001600160a01b0381168114620000bd57600080fd5b919050565b60008060408385031215620000d5578182fd5b620000e083620000a5565b9150620000f060208401620000a5565b90509250929050565b612dbd80620001096000396000f3fe6080604052600436106101c25760003560e01c8063715018a6116100f7578063b6743b4611610095578063e858ed6f11610064578063e858ed6f146104f1578063f2fde38b14610511578063f4706dcc14610531578063fc4af2ae14610573576101c2565b8063b6743b461461045f578063d1a1e68314610491578063e7f25c6e146104b1578063e812f446146104d1576101c2565b806397e4c49f116100d157806397e4c49f146103c95780639ea47a4c146103dc578063b0a79459146103fc578063b0ea57001461043f576101c2565b8063715018a61461037657806384e1d2b31461038b5780638da5cb5b146103ab576101c2565b8063245a7bfc116101645780634972134a1161013e5780634972134a146103185780634bad986c1461032e57806352e1491c14610341578063568c00d814610361576101c2565b8063245a7bfc146102b65780632ebf8464146102d457806342157a70146102f8576101c2565b80630fc45054116101a05780630fc450541461024c57806314e6047c1461026c5780631907209a146102815780631b2ef1ca14610296576101c2565b80630d25a141146101c75780630dfdfccd146101f95780630eaa75fe1461021b575b600080fd5b3480156101d357600080fd5b506101dc610593565b6040516001600160a01b0390911681526020015b60405180910390f35b34801561020557600080fd5b506102196102143660046129c1565b61061d565b005b34801561022757600080fd5b5061023b6102363660046129c1565b6106e2565b6040516101f0959493929190612b2e565b34801561025857600080fd5b5061021961026736600461270f565b6107a9565b34801561027857600080fd5b5061021961088a565b34801561028d57600080fd5b506101dc610911565b3480156102a257600080fd5b506102196102b1366004612a15565b6109ea565b3480156102c257600080fd5b506001546001600160a01b03166101dc565b3480156102e057600080fd5b506102ea60055481565b6040519081526020016101f0565b34801561030457600080fd5b50610219610313366004612a15565b610b0f565b34801561032457600080fd5b506102ea60095481565b61021961033c366004612a15565b610cfe565b34801561034d57600080fd5b506001546101dc906001600160a01b031681565b34801561036d57600080fd5b506101dc610d60565b34801561038257600080fd5b50610219610e39565b34801561039757600080fd5b506102196103a6366004612a15565b610eec565b3480156103b757600080fd5b506000546001600160a01b03166101dc565b6102196103d73660046129c1565b611124565b3480156103e857600080fd5b506102196103f736600461280e565b6112b4565b34801561040857600080fd5b506102ea6104173660046129f1565b60009182526004602090815260408084206001600160a01b0393909316845291905290205490565b34801561044b57600080fd5b5061021961045a366004612a15565b61141d565b34801561046b57600080fd5b5061047f61047a3660046129c1565b61153b565b6040516101f096959493929190612ad6565b34801561049d57600080fd5b506003546101dc906001600160a01b031681565b3480156104bd57600080fd5b506102196104cc3660046128c0565b611691565b3480156104dd57600080fd5b506102196104ec366004612a36565b611911565b3480156104fd57600080fd5b506102ea61050c3660046126e4565b611f8d565b34801561051d57600080fd5b5061021961052c3660046126ac565b611fbe565b34801561053d57600080fd5b5061055161054c366004612a15565b6120e7565b60408051825181526020808401519082015291810151908201526060016101f0565b34801561057f57600080fd5b5061021961058e3660046127a4565b61217b565b60006105a76001546001600160a01b031690565b6001600160a01b031663d365a08e6040518163ffffffff1660e01b815260040160206040518083038186803b1580156105df57600080fd5b505afa1580156105f3573d6000803e3d6000fd5b505050506040513d601f19601f8201168201806040525081019061061791906126c8565b90505b90565b6000610627610d60565b604051630c5a771d60e31b8152600481018490529091506000906001600160a01b038316906362d3b8e89060240160006040518083038186803b15801561066d57600080fd5b505afa158015610681573d6000803e3d6000fd5b505050506040513d6000823e601f3d908101601f191682016040526106a9919081019061275f565b9150506001600160a01b03811633146106dd5760405162461bcd60e51b81526004016106d490612b70565b60405180910390fd5b505050565b6008602052600090815260409020805481906106fd90612cd0565b80601f016020809104026020016040519081016040528092919081815260200182805461072990612cd0565b80156107765780601f1061074b57610100808354040283529160200191610776565b820191906000526020600020905b81548152906001019060200180831161075957829003601f168201915b5050505060018301546002840154600390940154929390929091506001600160a01b03811690600160a01b900460ff1685565b600b546001600160a01b031633146108035760405162461bcd60e51b815260206004820181905260248201527f596f7520617265206e6f742074686520636f6d70616e7920636f6e747261637460448201526064016106d4565b60005b82518160ff1610156106dd578160086000858460ff168151811061083a57634e487b7160e01b600052603260045260246000fd5b6020026020010151815260200190815260200160002060030160006101000a8154816001600160a01b0302191690836001600160a01b03160217905550808061088290612d26565b915050610806565b33610893610593565b6001600160a01b03161461090f5760405162461bcd60e51b815260206004820152603d60248201527f596f75206e65656420746f20626520746865206f776e6572206f66207468652060448201527f666163746f727920696e206f7264657220746f207265766f6b6520697400000060648201526084016106d4565b565b600b546000906001600160a01b03166109da576001546001600160a01b03166001600160a01b03166375211fd06040518163ffffffff1660e01b815260040160206040518083038186803b15801561096857600080fd5b505afa15801561097c573d6000803e3d6000fd5b505050506040513d601f19601f820116820180604052508101906109a091906126c8565b600b80546001600160a01b039283166001600160a01b03199182161791829055600a8054909116918316919091179081905516905061061a565b50600a546001600160a01b031690565b60008281526006602052604090206002015482906001600160a01b03163314610a1257600080fd5b6000838152600660208190526040909120015415610a845760405162461bcd60e51b815260206004820152602960248201527f596f75206e65656420746f2073706563696679207468652072657175697265646044820152682070726f647563747360b81b60648201526084016106d4565b60008381526006602090815260408083206002015460048352818420338552909252822080546001600160a01b03909216928592610ac3908490612c5e565b90915550506040518381526001600160a01b038216906000907fd2a30056f93efc3f8e492bac0806e5de7853e52ada2260b229015ce5a93c20449060200160405180910390a350505050565b610b188261061d565b600081815260066020526040812060030154905b818160ff161015610c9b576000838152600660205260409020600301805485919060ff8416908110610b6e57634e487b7160e01b600052603260045260246000fd5b9060005260206000209060030201600001541415610c89576000838152600660205260409020600301610ba2600184612c76565b81548110610bc057634e487b7160e01b600052603260045260246000fd5b9060005260206000209060030201600660008581526020019081526020016000206003018260ff1681548110610c0657634e487b7160e01b600052603260045260246000fd5b60009182526020808320845460039384029091019081556001808601548183015560029586015495909101949094558683526006905260409091200190610c4d9084612c76565b81548110610c6b57634e487b7160e01b600052603260045260246000fd5b60009182526020822060039091020181815560018101829055600201555b80610c9381612d26565b915050610b2c565b610ca6600183612c76565b8160ff161415610cf85760405162461bcd60e51b815260206004820152601a60248201527f436572746966696361746520636f6465206e6f7420666f756e6400000000000060448201526064016106d4565b50505050565b610d0782611124565b604080516060810182529283524260208085019182523485840190815260009485526006825292842060039081018054600181810183559187529290952095519102909401938455519183019190915551600290910155565b6003546000906001600160a01b0316610e29576001546001600160a01b03166001600160a01b0316634d14688e6040518163ffffffff1660e01b815260040160206040518083038186803b158015610db757600080fd5b505afa158015610dcb573d6000803e3d6000fd5b505050506040513d601f19601f82011682018060405250810190610def91906126c8565b600380546001600160a01b039283166001600160a01b0319918216179182905560028054909116918316919091179081905516905061061a565b506002546001600160a01b031690565b33610e4c6000546001600160a01b031690565b6001600160a01b031614610ea25760405162461bcd60e51b815260206004820181905260248201527f4f776e61626c653a2063616c6c6572206973206e6f7420746865206f776e657260448201526064016106d4565b600080546040516001600160a01b03909116907f8be0079c531659141344cd1fd0a4f28419497f9722a3daafe3b4186f6b6457e0908390a3600080546001600160a01b0319169055565b610ef461088a565b600081815260066020526040812060030154905b818160ff161015610c9b576000838152600660205260409020600301805485919060ff8416908110610f4a57634e487b7160e01b600052603260045260246000fd5b9060005260206000209060030201600001541415611112576000838152600660205260409020600301610f7e600184612c76565b81548110610f9c57634e487b7160e01b600052603260045260246000fd5b9060005260206000209060030201600660008581526020019081526020016000206003018260ff1681548110610fe257634e487b7160e01b600052603260045260246000fd5b60009182526020808320845460039384029091019081556001808601548183015560029586015495909101949094558154878452600690915260409092207fedf88b84b7fc468541cdda2e62965ca57617a4008817a003550ebbfa1546f4e7936001600160a01b039093169291019061105b9086612c76565b8154811061107957634e487b7160e01b600052603260045260246000fd5b600091825260209182902060026003909202010154604080516001600160a01b0390941684529183015247908201526001606082015260800160405180910390a160008381526006602052604090206003016110d6600184612c76565b815481106110f457634e487b7160e01b600052603260045260246000fd5b60009182526020822060039091020181815560018101829055600201555b8061111c81612d26565b915050610f08565b600061112e610d60565b604051630c5a771d60e31b8152600481018490529091506000906001600160a01b038316906362d3b8e89060240160006040518083038186803b15801561117457600080fd5b505afa158015611188573d6000803e3d6000fd5b505050506040513d6000823e601f3d908101601f191682016040526111b0919081019061275f565b9150506001600160a01b03811633146111db5760405162461bcd60e51b81526004016106d490612b70565b816001600160a01b031663ec5ffac26040518163ffffffff1660e01b815260040160206040518083038186803b15801561121457600080fd5b505afa158015611228573d6000803e3d6000fd5b505050506040513d601f19601f8201168201806040525081019061124c91906129d9565b3410156106dd5760405162461bcd60e51b815260206004820152603060248201527f5265636569766564207061796d656e74206973206c6f7765722074686174207460448201526f6865206d696e696d756d207374616b6560801b60648201526084016106d4565b6112bc610911565b60405163315e2b7360e11b81523360048201526001600160a01b0391909116906362bc56e69060240160006040518083038186803b1580156112fd57600080fd5b505afa158015611311573d6000803e3d6000fd5b505050506040513d6000823e601f3d908101601f19168201604052611339919081019061290c565b6060015115156001146113685760405162461bcd60e51b815260206004820152600060248201526044016106d4565b80518251146113b95760405162461bcd60e51b815260206004820152601e60248201527f417272617973206d757374206265207468652073616d65206c656e677468000060448201526064016106d4565b600554600090815260066020818152604090922084516113e193919092019190850190612322565b506005546000908152600660209081526040909120825161140a92600790920191840190612322565b5061141685858561217b565b5050505050565b6000811161146d5760405162461bcd60e51b815260206004820181905260248201527f416d6f756e74206e6565647320746f20626520626967676572207468616e203060448201526064016106d4565b6000828152600860205260409020600201548111156114c55760405162461bcd60e51b8152602060048201526014602482015273416d6f756e74206e6f7420617661696c61626c6560601b60448201526064016106d4565b600082815260086020526040812060020180548392906114e6908490612c76565b90915550506000829052600860205260095460405160009033907fe33fa6b1dc0e64c45482249b300e8b7a8c335905802467c723315913c6ff39119061152f9086815260200190565b60405180910390a45050565b60066020526000908152604090208054819061155690612cd0565b80601f016020809104026020016040519081016040528092919081815260200182805461158290612cd0565b80156115cf5780601f106115a4576101008083540402835291602001916115cf565b820191906000526020600020905b8154815290600101906020018083116115b257829003601f168201915b505050600184015460028501546004860154600887018054969793966001600160a01b0390931695509093509061160590612cd0565b80601f016020809104026020016040519081016040528092919081815260200182805461163190612cd0565b801561167e5780601f106116535761010080835404028352916020019161167e565b820191906000526020600020905b81548152906001019060200180831161166157829003601f168201915b5050506009909301549192505060ff1686565b611699610911565b60405163315e2b7360e11b81523360048201526001600160a01b0391909116906362bc56e69060240160006040518083038186803b1580156116da57600080fd5b505afa1580156116ee573d6000803e3d6000fd5b505050506040513d6000823e601f3d908101601f19168201604052611716919081019061290c565b6060015115156001146117455760405162461bcd60e51b815260206004820152600060248201526044016106d4565b60008281526004602090815260408083203384529091529020548111156117cc5760405162461bcd60e51b815260206004820152603560248201527f596f7520646f206e6f74206861766520656e6f756768206d6174657269616c73604482015274040e8de40c6e4cac2e8ca40e8d0d2e640c4c2e8c6d605b1b60648201526084016106d4565b6000828152600460209081526040808320338452909152812080548392906117f5908490612c76565b90915550506040805160a081018252848152602080820185905281830184905233606083015260016080830152600954600090815260088252929092208151805192938493611847928492019061236d565b5060208281015160018084019190915560408085015160028501556060850151600390940180546080909601511515600160a01b0260ff60a01b196001600160a01b039096166001600160a01b0319909716969096179490941694909417909255336000818152600783528481206009805482549687018355918352938220909401939093559054925190917f9cfea37e5f90ae77105574d017eb1153f6aed45ec586cc5def2a01311c7b1aa791a36009805490600061190683612d0b565b919050555050505050565b60008481526006602052604090206002015484906001600160a01b0316331461193957600080fd5b815183511461198a5760405162461bcd60e51b815260206004820152601e60248201527f417272617973206d757374206265207468652073616d65206c656e677468000060448201526064016106d4565b60008581526006602081905260409091200154611a005760405162461bcd60e51b815260206004820152602e60248201527f54686520746f6b656e20646f6573206e6f74206e656564206164646974696f6e60448201526d616c20696e6772656469656e747360901b60648201526084016106d4565b8251600086815260066020819052604090912001541115611a635760405162461bcd60e51b815260206004820152601f60248201527f4e6f7420656e6f75676820696e6772656469656e74732070726f76696465640060448201526064016106d4565b6000858152600660205260408120600201546001600160a01b0316905b858160ff161015611f1557600087815260066020908152604080832060070180548251818502810185019093528083529192909190830182828015611ae457602002820191906000526020600020905b815481526020019060010190808311611ad0575b505083519394506000925050505b60008a8152600660208190526040909120015460ff82161015611ea65760005b88518160ff161015611e9357878160ff1681518110611b4157634e487b7160e01b600052603260045260246000fd5b6020026020010151600860008b8460ff1681518110611b7057634e487b7160e01b600052603260045260246000fd5b60200260200101518152602001908152602001600020600201541015611be35760405162461bcd60e51b815260206004820152602260248201527f496e76616c696420626174636820616d6f756e7420737065636966696361746960448201526137b760f11b60648201526084016106d4565b60008b815260066020819052604090912001805460ff8416908110611c1857634e487b7160e01b600052603260045260246000fd5b9060005260206000200154600860008b8460ff1681518110611c4a57634e487b7160e01b600052603260045260246000fd5b6020026020010151815260200190815260200160002060010154148015611c9c5750838260ff1681518110611c8f57634e487b7160e01b600052603260045260246000fd5b6020026020010151600014155b8015611cd35750878160ff1681518110611cc657634e487b7160e01b600052603260045260246000fd5b6020026020010151600014155b8015611d1f57506000600860008b8460ff1681518110611d0357634e487b7160e01b600052603260045260246000fd5b6020026020010151815260200190815260200160002060020154115b15611e81576000611d8d898360ff1681518110611d4c57634e487b7160e01b600052603260045260246000fd5b6020026020010151868560ff1681518110611d7757634e487b7160e01b600052603260045260246000fd5b602002602001015161230a90919063ffffffff16565b9050611dc38a8360ff1681518110611db557634e487b7160e01b600052603260045260246000fd5b60200260200101518261141d565b80898360ff1681518110611de757634e487b7160e01b600052603260045260246000fd5b60200260200101818151611dfb9190612c76565b90525084518190869060ff8616908110611e2557634e487b7160e01b600052603260045260246000fd5b60200260200101818151611e399190612c76565b9052508451859060ff8516908110611e6157634e487b7160e01b600052603260045260246000fd5b602002602001015160001415611e7f5783611e7b81612cb9565b9450505b505b80611e8b81612d26565b915050611b12565b5080611e9e81612d26565b915050611af2565b508015611f005760405162461bcd60e51b815260206004820152602260248201527f436f756c64206e6f74207361746973667920616c6c20726571756972656d656e604482015261747360f01b60648201526084016106d4565b50508080611f0d90612d26565b915050611a80565b50600086815260046020908152604080832033845290915281208054879290611f3f908490612c5e565b90915550506040518581526001600160a01b038216906000907fd2a30056f93efc3f8e492bac0806e5de7853e52ada2260b229015ce5a93c20449060200160405180910390a3505050505050565b60076020528160005260406000208181548110611fa957600080fd5b90600052602060002001600091509150505481565b33611fd16000546001600160a01b031690565b6001600160a01b0316146120275760405162461bcd60e51b815260206004820181905260248201527f4f776e61626c653a2063616c6c6572206973206e6f7420746865206f776e657260448201526064016106d4565b6001600160a01b03811661208c5760405162461bcd60e51b815260206004820152602660248201527f4f776e61626c653a206e6577206f776e657220697320746865207a65726f206160448201526564647265737360d01b60648201526084016106d4565b600080546040516001600160a01b03808516939216917f8be0079c531659141344cd1fd0a4f28419497f9722a3daafe3b4186f6b6457e091a3600080546001600160a01b0319166001600160a01b0392909216919091179055565b61210b60405180606001604052806000815260200160008152602001600081525090565b600083815260066020526040902060030180548390811061213c57634e487b7160e01b600052603260045260246000fd5b90600052602060002090600302016040518060600160405290816000820154815260200160018201548152602001600282015481525050905092915050565b612183610911565b60405163315e2b7360e11b81523360048201526001600160a01b0391909116906362bc56e69060240160006040518083038186803b1580156121c457600080fd5b505afa1580156121d8573d6000803e3d6000fd5b505050506040513d6000823e601f3d908101601f19168201604052612200919081019061290c565b60600151151560011461222f5760405162461bcd60e51b815260206004820152600060248201526044016106d4565b600554600090815260066020908152604090912084516122519286019061236d565b506005805460009081526006602090815260408083206001018690558354835290912083516122879391909101918401906123e0565b506005805460009081526006602052604080822060020180546001600160a01b0319163390811790915583548352818320600901805460ff19166001179055925490519092917f6a997f5336d49ad9e39f0c2ca482abf14aafd464ca9930266c4c1567367167c591a36005805490600061230083612d0b565b9190505550505050565b6000818310612319578161231b565b825b9392505050565b82805482825590600052602060002090810192821561235d579160200282015b8281111561235d578251825591602001919060010190612342565b50612369929150612439565b5090565b82805461237990612cd0565b90600052602060002090601f01602090048101928261239b576000855561235d565b82601f106123b457805160ff191683800117855561235d565b8280016001018555821561235d579182018281111561235d578251825591602001919060010190612342565b82805482825590600052602060002090810192821561242d579160200282015b8281111561242d578251805161241d91849160209091019061236d565b5091602001919060010190612400565b5061236992915061244e565b5b80821115612369576000815560010161243a565b80821115612369576000612462828261246b565b5060010161244e565b50805461247790612cd0565b6000825580601f1061248957506124a7565b601f0160209004906000526020600020908101906124a79190612439565b50565b600082601f8301126124ba578081fd5b813560206124cf6124ca83612c12565b612be1565b82815281810190858301855b85811015612504576124f2898684358b0101612615565b845292840192908401906001016124db565b5090979650505050505050565b600082601f830112612521578081fd5b815160206125316124ca83612c12565b8281528181019085830160608086028801850189101561254f578687fd5b865b868110156125985781838b031215612567578788fd5b61257082612be1565b8351815286840151878201526040808501519082015285529385019391810191600101612551565b509198975050505050505050565b600082601f8301126125b6578081fd5b813560206125c66124ca83612c12565b82815281810190858301838502870184018810156125e2578586fd5b855b85811015612504578135845292840192908401906001016125e4565b8051801515811461261057600080fd5b919050565b600082601f830112612625578081fd5b81356126336124ca82612c36565b818152846020838601011115612647578283fd5b816020850160208301379081016020019190915292915050565b600082601f830112612671578081fd5b815161267f6124ca82612c36565b818152846020838601011115612693578283fd5b6126a4826020830160208701612c8d565b949350505050565b6000602082840312156126bd578081fd5b813561231b81612d72565b6000602082840312156126d9578081fd5b815161231b81612d72565b600080604083850312156126f6578081fd5b823561270181612d72565b946020939093013593505050565b60008060408385031215612721578182fd5b823567ffffffffffffffff811115612737578283fd5b612743858286016125a6565b925050602083013561275481612d72565b809150509250929050565b60008060408385031215612771578182fd5b825167ffffffffffffffff811115612787578283fd5b61279385828601612661565b925050602083015161275481612d72565b6000806000606084860312156127b8578081fd5b833567ffffffffffffffff808211156127cf578283fd5b6127db87838801612615565b94506020860135935060408601359150808211156127f7578283fd5b50612804868287016124aa565b9150509250925092565b600080600080600060a08688031215612825578283fd5b853567ffffffffffffffff8082111561283c578485fd5b61284889838a01612615565b9650602088013595506040880135915080821115612864578485fd5b61287089838a016124aa565b94506060880135915080821115612885578283fd5b61289189838a016125a6565b935060808801359150808211156128a6578283fd5b506128b3888289016125a6565b9150509295509295909350565b6000806000606084860312156128d4578081fd5b833567ffffffffffffffff8111156128ea578182fd5b6128f686828701612615565b9660208601359650604090950135949350505050565b60006020828403121561291d578081fd5b815167ffffffffffffffff80821115612934578283fd5b9083019060808286031215612947578283fd5b6129516080612be1565b82516004811061295f578485fd5b8152602083015182811115612972578485fd5b61297e87828601612661565b602083015250604083015182811115612995578485fd5b6129a187828601612511565b6040830152506129b360608401612600565b606082015295945050505050565b6000602082840312156129d2578081fd5b5035919050565b6000602082840312156129ea578081fd5b5051919050565b60008060408385031215612a03578182fd5b82359150602083013561275481612d72565b60008060408385031215612a27578182fd5b50508035926020909101359150565b60008060008060808587031215612a4b578182fd5b8435935060208501359250604085013567ffffffffffffffff80821115612a70578384fd5b612a7c888389016125a6565b93506060870135915080821115612a91578283fd5b50612a9e878288016125a6565b91505092959194509250565b60008151808452612ac2816020860160208601612c8d565b601f01601f19169290920160200192915050565b600060c08252612ae960c0830189612aaa565b602083018890526001600160a01b0387166040840152606083018690528281036080840152612b188186612aaa565b91505082151560a0830152979650505050505050565b600060a08252612b4160a0830188612aaa565b60208301969096525060408101939093526001600160a01b039190911660608301521515608090910152919050565b6020808252604b908201527f596f75206e65656420746f20626520746865206f776e6572206f66207468652060408201527f636572746966696361746520617574686f7269747920696e206f72646572207460608201526a1bc8185cdcda59db881a5d60aa1b608082015260a00190565b604051601f8201601f1916810167ffffffffffffffff81118282101715612c0a57612c0a612d5c565b604052919050565b600067ffffffffffffffff821115612c2c57612c2c612d5c565b5060209081020190565b600067ffffffffffffffff821115612c5057612c50612d5c565b50601f01601f191660200190565b60008219821115612c7157612c71612d46565b500190565b600082821015612c8857612c88612d46565b500390565b60005b83811015612ca8578181015183820152602001612c90565b83811115610cf85750506000910152565b600081612cc857612cc8612d46565b506000190190565b600281046001821680612ce457607f821691505b60208210811415612d0557634e487b7160e01b600052602260045260246000fd5b50919050565b6000600019821415612d1f57612d1f612d46565b5060010190565b600060ff821660ff811415612d3d57612d3d612d46565b60010192915050565b634e487b7160e01b600052601160045260246000fd5b634e487b7160e01b600052604160045260246000fd5b6001600160a01b03811681146124a757600080fdfea264697066735822122088faa760050a9ccb31d72a4bae387236e943b30967f91815952bcd448bad8bd564736f6c63430008020033",
  "immutableReferences": {},
  "source": "// SPDX-License-Identifier: MIT\npragma solidity >0.7.0 <0.9.0;\n\nimport './MaterialBase.sol';\nimport './utils/Math.sol';\nimport './utils/CompanyOwnable.sol';\nimport './utils/CertificateAuthorityManagerReferencer.sol';\nimport './Certifiable.sol';\n\ncontract Material is Certifiable, MaterialBase, CompanyOwnable {\n    using Math for uint256;\n\n    constructor(address _masterAddress, address _factoryContractAddress)\n        Ownable(_masterAddress, _factoryContractAddress)\n    {}\n\n    function create(\n        string memory _title,\n        uint256 _code,\n        string[] memory _images\n    ) public senderHasCompany {\n        materialToken[materialTokenId].title = _title;\n        materialToken[materialTokenId].code = _code;\n        materialToken[materialTokenId].images = _images;\n        materialToken[materialTokenId].creator = msg.sender;\n        materialToken[materialTokenId].isValue = true;\n        emit MaterialCreate(msg.sender, materialTokenId);\n        materialTokenId++;\n    }\n\n    function create(\n        string memory _title,\n        uint256 _code,\n        string[] memory _images,\n        uint256[] memory _recipematerialTokenId,\n        uint256[] memory _recipeMaterialAmount\n    ) public senderHasCompany {\n        require(\n            _recipematerialTokenId.length == _recipeMaterialAmount.length,\n            'Arrays must be the same length'\n        );\n        materialToken[materialTokenId].recipematerialTokenId = _recipematerialTokenId;\n        materialToken[materialTokenId].recipeMaterialAmount = _recipeMaterialAmount;\n        create(_title, _code, _images);\n    }\n\n    function mint(uint256 _tokenID, uint256 _amount) public senderIsTokenCreator(_tokenID) {\n        require(\n            materialToken[_tokenID].recipematerialTokenId.length == 0,\n            'You need to specify the required products'\n        );\n\n        address companyAddress = materialToken[_tokenID].creator;\n        balance[_tokenID][msg.sender] += _amount;\n        emit MaterialTransfer(address(0), companyAddress, _amount);\n    }\n\n    function mint(\n        uint256 _tokenID,\n        uint256 _amount,\n        uint256[] memory _batchesId,\n        uint256[] memory _batchesAmount\n    ) public senderIsTokenCreator(_tokenID) {\n        // specified pairs must be of the same length\n        require(_batchesId.length == _batchesAmount.length, 'Arrays must be the same length');\n        // the material token that we want to mint is a compound token\n        require(\n            materialToken[_tokenID].recipematerialTokenId.length != 0,\n            'The token does not need additional ingredients'\n        );\n        // specified batches must be at least the same length of the material token recipe\n        require(\n            materialToken[_tokenID].recipematerialTokenId.length <= _batchesId.length,\n            'Not enough ingredients provided'\n        );\n\n        address companyAddress = materialToken[_tokenID].creator;\n\n        for (uint8 amountIndex = 0; amountIndex < _amount; amountIndex++) {\n            uint256[] memory recipeMaterialsAmount = materialToken[_tokenID].recipeMaterialAmount;\n            uint256 recipeMaterialsAmountUnusedLength = recipeMaterialsAmount.length;\n            for (uint8 i = 0; i < materialToken[_tokenID].recipematerialTokenId.length; i++) {\n                for (uint8 j = 0; j < _batchesId.length; j++) {\n                    require(\n                        batch[_batchesId[j]].materialTokenAmount >= _batchesAmount[j],\n                        'Invalid batch amount specification'\n                    );\n\n                    if (\n                        // same ids\n                        batch[_batchesId[j]].materialTokenId ==\n                        materialToken[_tokenID].recipematerialTokenId[i] &&\n                        // there is still a neeed for required material\n                        recipeMaterialsAmount[i] != 0 &&\n                        // the specified available amount for the current batch is > 0\n                        _batchesAmount[j] != 0 &&\n                        // the actual batch has enougn materials\n                        batch[_batchesId[j]].materialTokenAmount > 0\n                    ) {\n                        uint256 toBeBurned = recipeMaterialsAmount[i].min(_batchesAmount[j]);\n                        // remove products from existing batches\n                        burnBatchToken(_batchesId[j], toBeBurned);\n                        _batchesAmount[j] -= toBeBurned;\n\n                        recipeMaterialsAmount[i] -= toBeBurned;\n                        if (recipeMaterialsAmount[i] == 0) {\n                            recipeMaterialsAmountUnusedLength--;\n                        }\n                    }\n                }\n            }\n            // final check to see if all products were used\n            require(recipeMaterialsAmountUnusedLength == 0, 'Could not satisfy all requirements');\n        }\n        balance[_tokenID][msg.sender] += _amount;\n        emit MaterialTransfer(address(0), companyAddress, _amount);\n    }\n\n    function createBatch(\n        string memory _code,\n        uint256 _tokenID,\n        uint256 _amount\n    ) public senderHasCompany {\n        require(\n            balance[_tokenID][msg.sender] >= _amount,\n            'You do not have enough materials to create this batch'\n        );\n        balance[_tokenID][msg.sender] -= _amount;\n        // create instance\n        BatchInfo memory batchInfo =\n            BatchInfo({\n                code: _code,\n                materialTokenId: _tokenID,\n                materialTokenAmount: _amount,\n                isValue: true,\n                owner: msg.sender\n            });\n        batch[batchId] = batchInfo;\n        addressBatches[msg.sender].push(batchId);\n        emit BatchCreate(msg.sender, batchId);\n        batchId++;\n    }\n\n    function burnBatchToken(uint256 _batchId, uint256 _amount) public {\n        require(_amount > 0, 'Amount needs to be bigger than 0');\n        require(batch[_batchId].materialTokenAmount >= _amount, 'Amount not available');\n\n        batch[_batchId].materialTokenAmount -= _amount;\n        if (batch[_batchId].materialTokenAmount == 0) {}\n        emit BatchTransfer(msg.sender, address(0), batchId, _amount);\n    }\n\n    function assignCertificate(uint256 _certificateCode, uint256 _itemIdentifier) public payable {\n        super.assignCertificate(_certificateCode);\n\n        CertificateInstance memory ci =\n            CertificateInstance({code: _certificateCode, time: block.timestamp, stake: msg.value});\n\n        materialToken[_itemIdentifier].certificates.push(ci);\n    }\n\n    function cancelCertificate(uint256 _certificateCode, uint256 _itemIdentifier) public {\n        super.cancelCertificate(_certificateCode);\n        uint256 length = materialToken[_itemIdentifier].certificates.length;\n        uint8 i;\n        for (i = 0; i < length; i++) {\n            if (materialToken[_itemIdentifier].certificates[i].code == _certificateCode) {\n                materialToken[_itemIdentifier].certificates[i] = materialToken[_itemIdentifier]\n                    .certificates[length - 1];\n                delete materialToken[_itemIdentifier].certificates[length - 1];\n            }\n        }\n        if (i == length - 1) {\n            revert('Certificate code not found');\n        }\n    }\n\n    /*\n     */\n    function revokeCertificate(uint256 _certificateCode, uint256 _itemIdentifier) public {\n        super.revokeCertificate();\n        uint256 length = materialToken[_itemIdentifier].certificates.length;\n        uint8 i;\n        for (i = 0; i < length; i++) {\n            if (materialToken[_itemIdentifier].certificates[i].code == _certificateCode) {\n                materialToken[_itemIdentifier].certificates[i] = materialToken[_itemIdentifier]\n                    .certificates[length - 1];\n                emit T(\n                    certificateAuthorityManagerAddress,\n                    materialToken[_itemIdentifier].certificates[length - 1].stake,\n                    address(this).balance,\n                    true\n                );\n                // payable(certificateAuthorityManagerAddress).transfer(\n                //     100000000000000000\n                // );\n                delete materialToken[_itemIdentifier].certificates[length - 1];\n            }\n        }\n        if (i == length - 1) {\n            revert('Certificate code not found');\n        }\n    }\n\n    function changeBatchOwnershipBatch(uint256[] memory _batchIds, address _newOwner)\n        public\n        fromCompanyContract\n    {\n        for (uint8 i = 0; i < _batchIds.length; i++) {\n            batch[_batchIds[i]].owner = _newOwner;\n        }\n    }\n}\n",
  "sourcePath": "/home/alex/Desktop/proofchain/truffle/contracts/Material.sol",
  "compiler": {
    "name": "solc",
    "version": "0.8.2+commit.661d1103.Emscripten.clang"
  },
  "schemaVersion": "3.3.4",
  "updatedAt": "2021-03-09T12:23:37.666Z",
  "devdoc": {
    "kind": "dev",
    "methods": {
      "aggregator()": {
        "details": "Returns the address of the current aggregator."
      },
      "owner()": {
        "details": "Returns the address of the current owner."
      },
      "renounceOwnership()": {
        "details": "Leaves the contract without owner. It will not be possible to call `onlyOwner` functions anymore. Can only be called by the current owner. NOTE: Renouncing ownership will leave the contract without an owner, thereby removing any functionality that is only available to the owner."
      },
      "transferOwnership(address)": {
        "details": "Transfers ownership of the contract to a new account (`newOwner`). Can only be called by the current owner."
      }
    },
    "version": 1
  },
  "userdoc": {
    "kind": "user",
    "methods": {},
    "version": 1
  }
}