{
  "contractName": "MaterialBase",
  "abi": [
    {
      "anonymous": false,
      "inputs": [
        {
          "indexed": true,
          "internalType": "address",
          "name": "company",
          "type": "address"
        },
        {
          "indexed": true,
          "internalType": "uint256",
          "name": "batchId",
          "type": "uint256"
        }
      ],
      "name": "BatchCreate",
      "type": "event"
    },
    {
      "anonymous": false,
      "inputs": [
        {
          "indexed": true,
          "internalType": "address",
          "name": "from",
          "type": "address"
        },
        {
          "indexed": true,
          "internalType": "address",
          "name": "to",
          "type": "address"
        },
        {
          "indexed": true,
          "internalType": "uint256",
          "name": "batchId",
          "type": "uint256"
        },
        {
          "indexed": false,
          "internalType": "uint256",
          "name": "amount",
          "type": "uint256"
        }
      ],
      "name": "BatchTransfer",
      "type": "event"
    },
    {
      "anonymous": false,
      "inputs": [
        {
          "indexed": true,
          "internalType": "address",
          "name": "company",
          "type": "address"
        },
        {
          "indexed": true,
          "internalType": "uint256",
          "name": "materialTokenId",
          "type": "uint256"
        }
      ],
      "name": "MaterialCreate",
      "type": "event"
    },
    {
      "anonymous": false,
      "inputs": [
        {
          "indexed": true,
          "internalType": "address",
          "name": "from",
          "type": "address"
        },
        {
          "indexed": true,
          "internalType": "address",
          "name": "to",
          "type": "address"
        },
        {
          "indexed": false,
          "internalType": "uint256",
          "name": "value",
          "type": "uint256"
        }
      ],
      "name": "MaterialTransfer",
      "type": "event"
    },
    {
      "anonymous": false,
      "inputs": [
        {
          "indexed": false,
          "internalType": "address",
          "name": "data1",
          "type": "address"
        },
        {
          "indexed": false,
          "internalType": "uint256",
          "name": "data2",
          "type": "uint256"
        },
        {
          "indexed": false,
          "internalType": "uint256",
          "name": "data3",
          "type": "uint256"
        },
        {
          "indexed": false,
          "internalType": "bool",
          "name": "data4",
          "type": "bool"
        }
      ],
      "name": "T",
      "type": "event"
    },
    {
      "inputs": [
        {
          "internalType": "address",
          "name": "",
          "type": "address"
        },
        {
          "internalType": "uint256",
          "name": "",
          "type": "uint256"
        }
      ],
      "name": "addressBatches",
      "outputs": [
        {
          "internalType": "uint256",
          "name": "",
          "type": "uint256"
        }
      ],
      "stateMutability": "view",
      "type": "function"
    },
    {
      "inputs": [
        {
          "internalType": "uint256",
          "name": "",
          "type": "uint256"
        }
      ],
      "name": "batch",
      "outputs": [
        {
          "internalType": "string",
          "name": "code",
          "type": "string"
        },
        {
          "internalType": "uint256",
          "name": "materialTokenId",
          "type": "uint256"
        },
        {
          "internalType": "uint256",
          "name": "materialTokenAmount",
          "type": "uint256"
        },
        {
          "internalType": "address",
          "name": "owner",
          "type": "address"
        },
        {
          "internalType": "bool",
          "name": "isValue",
          "type": "bool"
        }
      ],
      "stateMutability": "view",
      "type": "function"
    },
    {
      "inputs": [],
      "name": "batchId",
      "outputs": [
        {
          "internalType": "uint256",
          "name": "",
          "type": "uint256"
        }
      ],
      "stateMutability": "view",
      "type": "function"
    },
    {
      "inputs": [
        {
          "internalType": "uint256",
          "name": "",
          "type": "uint256"
        }
      ],
      "name": "materialToken",
      "outputs": [
        {
          "internalType": "string",
          "name": "title",
          "type": "string"
        },
        {
          "internalType": "uint256",
          "name": "code",
          "type": "uint256"
        },
        {
          "internalType": "address",
          "name": "creator",
          "type": "address"
        },
        {
          "internalType": "uint256",
          "name": "certificatesLength",
          "type": "uint256"
        },
        {
          "internalType": "string",
          "name": "amountIdentifier",
          "type": "string"
        },
        {
          "internalType": "bool",
          "name": "isValue",
          "type": "bool"
        }
      ],
      "stateMutability": "view",
      "type": "function"
    },
    {
      "inputs": [],
      "name": "materialTokenId",
      "outputs": [
        {
          "internalType": "uint256",
          "name": "",
          "type": "uint256"
        }
      ],
      "stateMutability": "view",
      "type": "function"
    },
    {
      "inputs": [
        {
          "internalType": "uint256",
          "name": "_tokenID",
          "type": "uint256"
        },
        {
          "internalType": "address",
          "name": "_address",
          "type": "address"
        }
      ],
      "name": "getBalance",
      "outputs": [
        {
          "internalType": "uint256",
          "name": "",
          "type": "uint256"
        }
      ],
      "stateMutability": "view",
      "type": "function"
    },
    {
      "inputs": [
        {
          "internalType": "uint256",
          "name": "_materialTokenId",
          "type": "uint256"
        },
        {
          "internalType": "uint256",
          "name": "_index",
          "type": "uint256"
        }
      ],
      "name": "getMaterialCertificate",
      "outputs": [
        {
          "components": [
            {
              "internalType": "uint256",
              "name": "code",
              "type": "uint256"
            },
            {
              "internalType": "uint256",
              "name": "time",
              "type": "uint256"
            },
            {
              "internalType": "uint256",
              "name": "stake",
              "type": "uint256"
            }
          ],
          "internalType": "struct MaterialBase.CertificateInstance",
          "name": "",
          "type": "tuple"
        }
      ],
      "stateMutability": "view",
      "type": "function"
    }
  ],
  "bytecode": "0x60806040526000600155600060055534801561001a57600080fd5b506106518061002a6000396000f3fe608060405234801561001057600080fd5b506004361061007d5760003560e01c8063b0a794591161005b578063b0a79459146100cf578063b6743b4614610103578063e858ed6f14610128578063f4706dcc1461013b5761007d565b80630eaa75fe146100825780632ebf8464146100af5780634972134a146100c6575b600080fd5b610095610090366004610497565b610170565b6040516100a695949392919061059e565b60405180910390f35b6100b860015481565b6040519081526020016100a6565b6100b860055481565b6100b86100dd3660046104af565b6000918252602082815260408084206001600160a01b0393909316845291905290205490565b610116610111366004610497565b610237565b6040516100a696959493929190610546565b6100b861013636600461046e565b61038d565b61014e6101493660046104da565b6103be565b60408051825181526020808401519082015291810151908201526060016100a6565b60046020526000908152604090208054819061018b906105e0565b80601f01602080910402602001604051908101604052809291908181526020018280546101b7906105e0565b80156102045780601f106101d957610100808354040283529160200191610204565b820191906000526020600020905b8154815290600101906020018083116101e757829003601f168201915b5050505060018301546002840154600390940154929390929091506001600160a01b03811690600160a01b900460ff1685565b600260205260009081526040902080548190610252906105e0565b80601f016020809104026020016040519081016040528092919081815260200182805461027e906105e0565b80156102cb5780601f106102a0576101008083540402835291602001916102cb565b820191906000526020600020905b8154815290600101906020018083116102ae57829003601f168201915b505050600184015460028501546004860154600887018054969793966001600160a01b03909316955090935090610301906105e0565b80601f016020809104026020016040519081016040528092919081815260200182805461032d906105e0565b801561037a5780601f1061034f5761010080835404028352916020019161037a565b820191906000526020600020905b81548152906001019060200180831161035d57829003601f168201915b5050506009909301549192505060ff1686565b600360205281600052604060002081815481106103a957600080fd5b90600052602060002001600091509150505481565b6103e260405180606001604052806000815260200160008152602001600081525090565b600083815260026020526040902060030180548390811061041357634e487b7160e01b600052603260045260246000fd5b90600052602060002090600302016040518060600160405290816000820154815260200160018201548152602001600282015481525050905092915050565b80356001600160a01b038116811461046957600080fd5b919050565b60008060408385031215610480578182fd5b61048983610452565b946020939093013593505050565b6000602082840312156104a8578081fd5b5035919050565b600080604083850312156104c1578182fd5b823591506104d160208401610452565b90509250929050565b600080604083850312156104ec578182fd5b50508035926020909101359150565b60008151808452815b8181101561052057602081850181015186830182015201610504565b818111156105315782602083870101525b50601f01601f19169290920160200192915050565b600060c0825261055960c08301896104fb565b602083018890526001600160a01b038716604084015260608301869052828103608084015261058881866104fb565b91505082151560a0830152979650505050505050565b600060a082526105b160a08301886104fb565b60208301969096525060408101939093526001600160a01b039190911660608301521515608090910152919050565b6002810460018216806105f457607f821691505b6020821081141561061557634e487b7160e01b600052602260045260246000fd5b5091905056fea2646970667358221220f97526f30495dd7e7c2ece9bfe05d9486904b2afd554c9c720527c1fda38c6a564736f6c63430008020033",
  "immutableReferences": {},
  "source": "// SPDX-License-Identifier: MIT\npragma solidity >0.7.0 <0.9.0;\n\ncontract MaterialBase {\n    event MaterialCreate(address indexed company, uint256 indexed materialTokenId);\n    event MaterialTransfer(address indexed from, address indexed to, uint256 value);\n    event BatchCreate(address indexed company, uint256 indexed batchId);\n    // amount is only specified on burn\n    event BatchTransfer(\n        address indexed from,\n        address indexed to,\n        uint256 indexed batchId,\n        uint256 amount\n    );\n    event T(address data1, uint256 data2, uint256 data3, bool data4);\n    struct CertificateInstance {\n        uint256 code;\n        uint256 time;\n        uint256 stake;\n    }\n    struct MaterialTokenInfo {\n        // a basic title for the material\n        string title;\n        // a real-life identification code, see https://www.gs1.org/standards/id-keys/gtin\n        uint256 code;\n        // the address of the creator, the creator must own a company\n        address creator;\n        // certificates\n        CertificateInstance[] certificates;\n        uint256 certificatesLength;\n        // ipfs images hash\n        string[] images;\n        // mapping from (tokenID -> amount of the amount identifier)\n        uint256[] recipematerialTokenId;\n        uint256[] recipeMaterialAmount;\n        // amount identifier (kg, grams)\n        string amountIdentifier;\n        bool isValue;\n    }\n    struct BatchInfo {\n        string code;\n        uint256 materialTokenId;\n        uint256 materialTokenAmount;\n        address owner;\n        bool isValue;\n    }\n    // Mapping from TokenID to address balances\n    mapping(uint256 => mapping(address => uint256)) balance;\n    // all tokens, (materialTokenId => MaterialTokenInfo)\n    // materialTokenId uniquely identifies a product\n    uint256 public materialTokenId = 0;\n    mapping(uint256 => MaterialTokenInfo) public materialToken;\n\n    // all batches associated with an address (address => batchId[])\n    mapping(address => uint256[]) public addressBatches;\n    // all batchId associated with a batch\n    mapping(uint256 => BatchInfo) public batch;\n    uint256 public batchId = 0;\n\n    modifier senderIsTokenCreator(uint256 _materialTokenId) {\n        require(msg.sender == materialToken[_materialTokenId].creator);\n        _;\n    }\n\n    function getBalance(uint256 _tokenID, address _address) public view returns (uint256) {\n        return balance[_tokenID][_address];\n    }\n\n    function getMaterialCertificate(uint256 _materialTokenId, uint256 _index)\n        public\n        view\n        returns (CertificateInstance memory)\n    {\n        return materialToken[_materialTokenId].certificates[_index];\n    }\n\n    // function getBatchById(uint256 _batchId)\n    //     public\n    //     view\n    //     returns (BatchInfo memory)\n    // {\n    //     return batch[_batchId];\n    // }\n}\n",
  "sourcePath": "/home/alex/Desktop/proofchain/truffle/contracts/MaterialBase.sol",
  "compiler": {
    "name": "solc",
    "version": "0.8.2+commit.661d1103.Emscripten.clang"
  },
  "schemaVersion": "3.3.4",
  "updatedAt": "2021-03-09T12:23:37.681Z",
  "devdoc": {
    "kind": "dev",
    "methods": {},
    "version": 1
  },
  "userdoc": {
    "kind": "user",
    "methods": {},
    "version": 1
  }
}